{
  "_format": "hh-sol-artifact-1",
  "contractName": "CarsToken",
  "sourceName": "contracts/CarsToken.sol",
  "abi": [
    {
      "inputs": [
        {
          "internalType": "address",
          "name": "_traits",
          "type": "address"
        },
        {
          "internalType": "address",
          "name": "_minter",
          "type": "address"
        },
        {
          "internalType": "uint256",
          "name": "_maxTokens",
          "type": "uint256"
        }
      ],
      "stateMutability": "nonpayable",
      "type": "constructor"
    },
    {
      "anonymous": false,
      "inputs": [
        {
          "indexed": true,
          "internalType": "address",
          "name": "owner",
          "type": "address"
        },
        {
          "indexed": true,
          "internalType": "address",
          "name": "approved",
          "type": "address"
        },
        {
          "indexed": true,
          "internalType": "uint256",
          "name": "tokenId",
          "type": "uint256"
        }
      ],
      "name": "Approval",
      "type": "event"
    },
    {
      "anonymous": false,
      "inputs": [
        {
          "indexed": true,
          "internalType": "address",
          "name": "owner",
          "type": "address"
        },
        {
          "indexed": true,
          "internalType": "address",
          "name": "operator",
          "type": "address"
        },
        {
          "indexed": false,
          "internalType": "bool",
          "name": "approved",
          "type": "bool"
        }
      ],
      "name": "ApprovalForAll",
      "type": "event"
    },
    {
      "anonymous": false,
      "inputs": [
        {
          "indexed": false,
          "internalType": "uint256",
          "name": "carId",
          "type": "uint256"
        }
      ],
      "name": "CarBurned",
      "type": "event"
    },
    {
      "anonymous": false,
      "inputs": [
        {
          "indexed": false,
          "internalType": "uint256",
          "name": "carId",
          "type": "uint256"
        }
      ],
      "name": "CarMinted",
      "type": "event"
    },
    {
      "anonymous": false,
      "inputs": [
        {
          "indexed": true,
          "internalType": "address",
          "name": "previousOwner",
          "type": "address"
        },
        {
          "indexed": true,
          "internalType": "address",
          "name": "newOwner",
          "type": "address"
        }
      ],
      "name": "OwnershipTransferred",
      "type": "event"
    },
    {
      "anonymous": false,
      "inputs": [
        {
          "indexed": true,
          "internalType": "address",
          "name": "from",
          "type": "address"
        },
        {
          "indexed": true,
          "internalType": "address",
          "name": "to",
          "type": "address"
        },
        {
          "indexed": true,
          "internalType": "uint256",
          "name": "tokenId",
          "type": "uint256"
        }
      ],
      "name": "Transfer",
      "type": "event"
    },
    {
      "inputs": [],
      "name": "MAX_TOKENS",
      "outputs": [
        {
          "internalType": "uint256",
          "name": "",
          "type": "uint256"
        }
      ],
      "stateMutability": "view",
      "type": "function"
    },
    {
      "inputs": [
        {
          "internalType": "address",
          "name": "to",
          "type": "address"
        },
        {
          "internalType": "uint256",
          "name": "tokenId",
          "type": "uint256"
        }
      ],
      "name": "approve",
      "outputs": [],
      "stateMutability": "nonpayable",
      "type": "function"
    },
    {
      "inputs": [
        {
          "internalType": "address",
          "name": "owner",
          "type": "address"
        }
      ],
      "name": "balanceOf",
      "outputs": [
        {
          "internalType": "uint256",
          "name": "",
          "type": "uint256"
        }
      ],
      "stateMutability": "view",
      "type": "function"
    },
    {
      "inputs": [
        {
          "internalType": "uint256",
          "name": "_carId",
          "type": "uint256"
        }
      ],
      "name": "burn",
      "outputs": [],
      "stateMutability": "nonpayable",
      "type": "function"
    },
    {
      "inputs": [
        {
          "internalType": "uint256",
          "name": "",
          "type": "uint256"
        }
      ],
      "name": "existingCombinations",
      "outputs": [
        {
          "internalType": "uint256",
          "name": "",
          "type": "uint256"
        }
      ],
      "stateMutability": "view",
      "type": "function"
    },
    {
      "inputs": [
        {
          "internalType": "uint256",
          "name": "tokenId",
          "type": "uint256"
        }
      ],
      "name": "getApproved",
      "outputs": [
        {
          "internalType": "address",
          "name": "",
          "type": "address"
        }
      ],
      "stateMutability": "view",
      "type": "function"
    },
    {
      "inputs": [
        {
          "internalType": "uint256",
          "name": "tokenId",
          "type": "uint256"
        }
      ],
      "name": "getTokenTraits",
      "outputs": [
        {
          "components": [
            {
              "internalType": "uint8",
              "name": "background",
              "type": "uint8"
            },
            {
              "internalType": "uint8",
              "name": "floor",
              "type": "uint8"
            },
            {
              "internalType": "uint8",
              "name": "body",
              "type": "uint8"
            },
            {
              "internalType": "uint8",
              "name": "bottom",
              "type": "uint8"
            },
            {
              "internalType": "uint8",
              "name": "wheel",
              "type": "uint8"
            },
            {
              "internalType": "uint8",
              "name": "headlight",
              "type": "uint8"
            },
            {
              "internalType": "uint8",
              "name": "window",
              "type": "uint8"
            },
            {
              "internalType": "uint8",
              "name": "weather",
              "type": "uint8"
            },
            {
              "internalType": "uint8",
              "name": "misc",
              "type": "uint8"
            }
          ],
          "internalType": "struct ICarsToken.Car",
          "name": "",
          "type": "tuple"
        }
      ],
      "stateMutability": "view",
      "type": "function"
    },
    {
      "inputs": [
        {
          "internalType": "address",
          "name": "owner",
          "type": "address"
        },
        {
          "internalType": "address",
          "name": "operator",
          "type": "address"
        }
      ],
      "name": "isApprovedForAll",
      "outputs": [
        {
          "internalType": "bool",
          "name": "",
          "type": "bool"
        }
      ],
      "stateMutability": "view",
      "type": "function"
    },
    {
      "inputs": [],
      "name": "mint",
      "outputs": [
        {
          "internalType": "uint256",
          "name": "",
          "type": "uint256"
        }
      ],
      "stateMutability": "payable",
      "type": "function"
    },
    {
      "inputs": [],
      "name": "minted",
      "outputs": [
        {
          "internalType": "uint16",
          "name": "",
          "type": "uint16"
        }
      ],
      "stateMutability": "view",
      "type": "function"
    },
    {
      "inputs": [],
      "name": "minter",
      "outputs": [
        {
          "internalType": "address",
          "name": "",
          "type": "address"
        }
      ],
      "stateMutability": "view",
      "type": "function"
    },
    {
      "inputs": [],
      "name": "name",
      "outputs": [
        {
          "internalType": "string",
          "name": "",
          "type": "string"
        }
      ],
      "stateMutability": "view",
      "type": "function"
    },
    {
      "inputs": [],
      "name": "owner",
      "outputs": [
        {
          "internalType": "address",
          "name": "",
          "type": "address"
        }
      ],
      "stateMutability": "view",
      "type": "function"
    },
    {
      "inputs": [
        {
          "internalType": "uint256",
          "name": "tokenId",
          "type": "uint256"
        }
      ],
      "name": "ownerOf",
      "outputs": [
        {
          "internalType": "address",
          "name": "",
          "type": "address"
        }
      ],
      "stateMutability": "view",
      "type": "function"
    },
    {
      "inputs": [
        {
          "internalType": "uint256",
          "name": "",
          "type": "uint256"
        },
        {
          "internalType": "uint256",
          "name": "",
          "type": "uint256"
        }
      ],
      "name": "rarities",
      "outputs": [
        {
          "internalType": "uint8",
          "name": "",
          "type": "uint8"
        }
      ],
      "stateMutability": "view",
      "type": "function"
    },
    {
      "inputs": [],
      "name": "renounceOwnership",
      "outputs": [],
      "stateMutability": "nonpayable",
      "type": "function"
    },
    {
      "inputs": [
        {
          "internalType": "address",
          "name": "from",
          "type": "address"
        },
        {
          "internalType": "address",
          "name": "to",
          "type": "address"
        },
        {
          "internalType": "uint256",
          "name": "tokenId",
          "type": "uint256"
        }
      ],
      "name": "safeTransferFrom",
      "outputs": [],
      "stateMutability": "nonpayable",
      "type": "function"
    },
    {
      "inputs": [
        {
          "internalType": "address",
          "name": "from",
          "type": "address"
        },
        {
          "internalType": "address",
          "name": "to",
          "type": "address"
        },
        {
          "internalType": "uint256",
          "name": "tokenId",
          "type": "uint256"
        },
        {
          "internalType": "bytes",
          "name": "_data",
          "type": "bytes"
        }
      ],
      "name": "safeTransferFrom",
      "outputs": [],
      "stateMutability": "nonpayable",
      "type": "function"
    },
    {
      "inputs": [
        {
          "internalType": "address",
          "name": "operator",
          "type": "address"
        },
        {
          "internalType": "bool",
          "name": "approved",
          "type": "bool"
        }
      ],
      "name": "setApprovalForAll",
      "outputs": [],
      "stateMutability": "nonpayable",
      "type": "function"
    },
    {
      "inputs": [
        {
          "internalType": "address",
          "name": "_minter",
          "type": "address"
        }
      ],
      "name": "setMinter",
      "outputs": [],
      "stateMutability": "nonpayable",
      "type": "function"
    },
    {
      "inputs": [
        {
          "internalType": "bytes4",
          "name": "interfaceId",
          "type": "bytes4"
        }
      ],
      "name": "supportsInterface",
      "outputs": [
        {
          "internalType": "bool",
          "name": "",
          "type": "bool"
        }
      ],
      "stateMutability": "view",
      "type": "function"
    },
    {
      "inputs": [],
      "name": "symbol",
      "outputs": [
        {
          "internalType": "string",
          "name": "",
          "type": "string"
        }
      ],
      "stateMutability": "view",
      "type": "function"
    },
    {
      "inputs": [
        {
          "internalType": "uint256",
          "name": "",
          "type": "uint256"
        }
      ],
      "name": "tokenTraits",
      "outputs": [
        {
          "internalType": "uint8",
          "name": "background",
          "type": "uint8"
        },
        {
          "internalType": "uint8",
          "name": "floor",
          "type": "uint8"
        },
        {
          "internalType": "uint8",
          "name": "body",
          "type": "uint8"
        },
        {
          "internalType": "uint8",
          "name": "bottom",
          "type": "uint8"
        },
        {
          "internalType": "uint8",
          "name": "wheel",
          "type": "uint8"
        },
        {
          "internalType": "uint8",
          "name": "headlight",
          "type": "uint8"
        },
        {
          "internalType": "uint8",
          "name": "window",
          "type": "uint8"
        },
        {
          "internalType": "uint8",
          "name": "weather",
          "type": "uint8"
        },
        {
          "internalType": "uint8",
          "name": "misc",
          "type": "uint8"
        }
      ],
      "stateMutability": "view",
      "type": "function"
    },
    {
      "inputs": [
        {
          "internalType": "uint256",
          "name": "tokenId",
          "type": "uint256"
        }
      ],
      "name": "tokenURI",
      "outputs": [
        {
          "internalType": "string",
          "name": "",
          "type": "string"
        }
      ],
      "stateMutability": "view",
      "type": "function"
    },
    {
      "inputs": [],
      "name": "traits",
      "outputs": [
        {
          "internalType": "contract ICarsTraits",
          "name": "",
          "type": "address"
        }
      ],
      "stateMutability": "view",
      "type": "function"
    },
    {
      "inputs": [
        {
          "internalType": "address",
          "name": "from",
          "type": "address"
        },
        {
          "internalType": "address",
          "name": "to",
          "type": "address"
        },
        {
          "internalType": "uint256",
          "name": "tokenId",
          "type": "uint256"
        }
      ],
      "name": "transferFrom",
      "outputs": [],
      "stateMutability": "nonpayable",
      "type": "function"
    },
    {
      "inputs": [
        {
          "internalType": "address",
          "name": "newOwner",
          "type": "address"
        }
      ],
      "name": "transferOwnership",
      "outputs": [],
      "stateMutability": "nonpayable",
      "type": "function"
    },
    {
      "inputs": [],
      "name": "withdraw",
      "outputs": [],
      "stateMutability": "nonpayable",
      "type": "function"
    }
  ],
  "bytecode": "0x60a06040523480156200001157600080fd5b5060405162004d7a38038062004d7a833981810160405281019062000037919062000ad4565b6040518060400160405280600681526020017f43617244414f00000000000000000000000000000000000000000000000000008152506040518060400160405280600481526020017f43415244000000000000000000000000000000000000000000000000000000008152508160009080519060200190620000bb92919062000690565b508060019080519060200190620000d492919062000690565b505050620000f7620000eb620005c260201b60201c565b620005ca60201b60201c565b82601260006101000a81548173ffffffffffffffffffffffffffffffffffffffff021916908373ffffffffffffffffffffffffffffffffffffffff16021790555081601360006101000a81548173ffffffffffffffffffffffffffffffffffffffff021916908373ffffffffffffffffffffffffffffffffffffffff16021790555080608081815250506040518060e00160405280600160ff168152602001600160ff168152602001600160ff168152602001600160ff168152602001600160ff168152602001600160ff168152602001600160ff168152506007600060098110620001e857620001e762000bd3565b5b01906007620001f992919062000721565b50604051806101200160405280600160ff168152602001600160ff168152602001600160ff168152602001600160ff168152602001600160ff168152602001600160ff168152602001600160ff168152602001600160ff168152602001600160ff16815250600760016009811062000276576200027562000bd3565b5b0190600962000287929190620007cf565b506040518060c00160405280600160ff168152602001600160ff168152602001600160ff168152602001600160ff168152602001600160ff168152602001600160ff168152506007600260098110620002e557620002e462000bd3565b5b01906006620002f69291906200087d565b506040518060a00160405280600160ff168152602001600160ff168152602001600160ff168152602001600160ff168152602001600160ff1681525060076003600981106200034a576200034962000bd3565b5b019060056200035b9291906200092b565b506040518060e00160405280600160ff168152602001600160ff168152602001600160ff168152602001600160ff168152602001600160ff168152602001600160ff168152602001600160ff168152506007600460098110620003c357620003c262000bd3565b5b01906007620003d492919062000721565b50604051806101000160405280600160ff168152602001600160ff168152602001600160ff168152602001600160ff168152602001600160ff168152602001600160ff168152602001600160ff168152602001600160ff16815250600760056009811062000447576200044662000bd3565b5b0190600862000458929190620009d9565b506040518060c00160405280600160ff168152602001600160ff168152602001600160ff168152602001600160ff168152602001600160ff168152602001600160ff168152506007600660098110620004b657620004b562000bd3565b5b01906006620004c79291906200087d565b506040518060e00160405280600160ff168152602001600160ff168152602001600160ff168152602001600160ff168152602001600160ff168152602001600160ff168152602001600160ff16815250600780600981106200052e576200052d62000bd3565b5b019060076200053f92919062000721565b506040518060e00160405280600160ff168152602001600160ff168152602001600160ff168152602001600160ff168152602001600160ff168152602001600160ff168152602001600160ff168152506007600860098110620005a757620005a662000bd3565b5b01906007620005b892919062000721565b5050505062000c3b565b600033905090565b6000600660009054906101000a900473ffffffffffffffffffffffffffffffffffffffff16905081600660006101000a81548173ffffffffffffffffffffffffffffffffffffffff021916908373ffffffffffffffffffffffffffffffffffffffff1602179055508173ffffffffffffffffffffffffffffffffffffffff168173ffffffffffffffffffffffffffffffffffffffff167f8be0079c531659141344cd1fd0a4f28419497f9722a3daafe3b4186f6b6457e060405160405180910390a35050565b8280546200069e9062000b6e565b90600052602060002090601f016020900481019282620006c257600085556200070e565b82601f10620006dd57805160ff19168380011785556200070e565b828001600101855582156200070e579182015b828111156200070d578251825591602001919060010190620006f0565b5b5090506200071d919062000a87565b5090565b82805482825590600052602060002090601f01602090048101928215620007bc5791602002820160005b838211156200078b57835183826101000a81548160ff021916908360ff16021790555092602001926001016020816000010492830192600103026200074b565b8015620007ba5782816101000a81549060ff02191690556001016020816000010492830192600103026200078b565b505b509050620007cb919062000a87565b5090565b82805482825590600052602060002090601f016020900481019282156200086a5791602002820160005b838211156200083957835183826101000a81548160ff021916908360ff1602179055509260200192600101602081600001049283019260010302620007f9565b8015620008685782816101000a81549060ff021916905560010160208160000104928301926001030262000839565b505b50905062000879919062000a87565b5090565b82805482825590600052602060002090601f01602090048101928215620009185791602002820160005b83821115620008e757835183826101000a81548160ff021916908360ff1602179055509260200192600101602081600001049283019260010302620008a7565b8015620009165782816101000a81549060ff0219169055600101602081600001049283019260010302620008e7565b505b50905062000927919062000a87565b5090565b82805482825590600052602060002090601f01602090048101928215620009c65791602002820160005b838211156200099557835183826101000a81548160ff021916908360ff160217905550926020019260010160208160000104928301926001030262000955565b8015620009c45782816101000a81549060ff021916905560010160208160000104928301926001030262000995565b505b509050620009d5919062000a87565b5090565b82805482825590600052602060002090601f0160209004810192821562000a745791602002820160005b8382111562000a4357835183826101000a81548160ff021916908360ff160217905550926020019260010160208160000104928301926001030262000a03565b801562000a725782816101000a81549060ff021916905560010160208160000104928301926001030262000a43565b505b50905062000a83919062000a87565b5090565b5b8082111562000aa257600081600090555060010162000a88565b5090565b60008151905062000ab78162000c07565b92915050565b60008151905062000ace8162000c21565b92915050565b60008060006060848603121562000af05762000aef62000c02565b5b600062000b008682870162000aa6565b935050602062000b138682870162000aa6565b925050604062000b268682870162000abd565b9150509250925092565b600062000b3d8262000b44565b9050919050565b600073ffffffffffffffffffffffffffffffffffffffff82169050919050565b6000819050919050565b6000600282049050600182168062000b8757607f821691505b6020821081141562000b9e5762000b9d62000ba4565b5b50919050565b7f4e487b7100000000000000000000000000000000000000000000000000000000600052602260045260246000fd5b7f4e487b7100000000000000000000000000000000000000000000000000000000600052603260045260246000fd5b600080fd5b62000c128162000b30565b811462000c1e57600080fd5b50565b62000c2c8162000b64565b811462000c3857600080fd5b50565b60805161412362000c5760003960006116b901526141236000f3fe6080604052600436106101b75760003560e01c8063715018a6116100ec578063c87b56dd1161008a578063e985e9c511610064578063e985e9c51461062d578063f2fde38b1461066a578063f47c84c514610693578063fca3b5aa146106be576101b7565b8063c87b56dd14610580578063e05c57bf146105bd578063e1fc334f14610602576101b7565b806395d89b41116100c657806395d89b41146104c6578063a1b8f374146104f1578063a22cb4651461052e578063b88d4fde14610557576101b7565b8063715018a6146104475780638da5cb5b1461045e57806394e5684714610489576101b7565b806333df4b2c1161015957806342966c681161013357806342966c68146103795780634f02c420146103a25780636352211e146103cd57806370a082311461040a576101b7565b806333df4b2c146102fc5780633ccfd60b1461033957806342842e0e14610350576101b7565b8063081812fc11610195578063081812fc1461024f578063095ea7b31461028c5780631249c58b146102b557806323b872dd146102d3576101b7565b806301ffc9a7146101bc57806306fdde03146101f95780630754617214610224575b600080fd5b3480156101c857600080fd5b506101e360048036038101906101de9190612c44565b6106e7565b6040516101f0919061331f565b60405180910390f35b34801561020557600080fd5b5061020e6107c9565b60405161021b9190613355565b60405180910390f35b34801561023057600080fd5b5061023961085b565b60405161024691906132b8565b60405180910390f35b34801561025b57600080fd5b5061027660048036038101906102719190612ce7565b610881565b60405161028391906132b8565b60405180910390f35b34801561029857600080fd5b506102b360048036038101906102ae9190612c04565b610906565b005b6102bd610a1e565b6040516102ca9190613609565b60405180910390f35b3480156102df57600080fd5b506102fa60048036038101906102f59190612aee565b610c50565b005b34801561030857600080fd5b50610323600480360381019061031e9190612d14565b610cb0565b6040516103309190613624565b60405180910390f35b34801561034557600080fd5b5061034e610cf6565b005b34801561035c57600080fd5b5061037760048036038101906103729190612aee565b610dc2565b005b34801561038557600080fd5b506103a0600480360381019061039b9190612ce7565b610de2565b005b3480156103ae57600080fd5b506103b7610ebc565b6040516103c491906135d3565b60405180910390f35b3480156103d957600080fd5b506103f460048036038101906103ef9190612ce7565b610ed0565b60405161040191906132b8565b60405180910390f35b34801561041657600080fd5b50610431600480360381019061042c9190612a81565b610f82565b60405161043e9190613609565b60405180910390f35b34801561045357600080fd5b5061045c61103a565b005b34801561046a57600080fd5b506104736110c2565b60405161048091906132b8565b60405180910390f35b34801561049557600080fd5b506104b060048036038101906104ab9190612ce7565b6110ec565b6040516104bd91906135b7565b60405180910390f35b3480156104d257600080fd5b506104db61121f565b6040516104e89190613355565b60405180910390f35b3480156104fd57600080fd5b5061051860048036038101906105139190612ce7565b6112b1565b6040516105259190613609565b60405180910390f35b34801561053a57600080fd5b5061055560048036038101906105509190612bc4565b6112c9565b005b34801561056357600080fd5b5061057e60048036038101906105799190612b41565b6112df565b005b34801561058c57600080fd5b506105a760048036038101906105a29190612ce7565b611341565b6040516105b49190613355565b60405180910390f35b3480156105c957600080fd5b506105e460048036038101906105df9190612ce7565b611442565b6040516105f99998979695949392919061363f565b60405180910390f35b34801561060e57600080fd5b50610617611505565b604051610624919061333a565b60405180910390f35b34801561063957600080fd5b50610654600480360381019061064f9190612aae565b61152b565b604051610661919061331f565b60405180910390f35b34801561067657600080fd5b50610691600480360381019061068c9190612a81565b6115bf565b005b34801561069f57600080fd5b506106a86116b7565b6040516106b59190613609565b60405180910390f35b3480156106ca57600080fd5b506106e560048036038101906106e09190612a81565b6116db565b005b60007f80ac58cd000000000000000000000000000000000000000000000000000000007bffffffffffffffffffffffffffffffffffffffffffffffffffffffff1916827bffffffffffffffffffffffffffffffffffffffffffffffffffffffff191614806107b257507f5b5e139f000000000000000000000000000000000000000000000000000000007bffffffffffffffffffffffffffffffffffffffffffffffffffffffff1916827bffffffffffffffffffffffffffffffffffffffffffffffffffffffff1916145b806107c257506107c18261179b565b5b9050919050565b6060600080546107d89061395d565b80601f01602080910402602001604051908101604052809291908181526020018280546108049061395d565b80156108515780601f1061082657610100808354040283529160200191610851565b820191906000526020600020905b81548152906001019060200180831161083457829003601f168201915b5050505050905090565b601360009054906101000a900473ffffffffffffffffffffffffffffffffffffffff1681565b600061088c82611805565b6108cb576040517f08c379a00000000000000000000000000000000000000000000000000000000081526004016108c2906134b7565b60405180910390fd5b6004600083815260200190815260200160002060009054906101000a900473ffffffffffffffffffffffffffffffffffffffff169050919050565b600061091182610ed0565b90508073ffffffffffffffffffffffffffffffffffffffff168373ffffffffffffffffffffffffffffffffffffffff161415610982576040517f08c379a000000000000000000000000000000000000000000000000000000000815260040161097990613557565b60405180910390fd5b8073ffffffffffffffffffffffffffffffffffffffff166109a1611871565b73ffffffffffffffffffffffffffffffffffffffff1614806109d057506109cf816109ca611871565b61152b565b5b610a0f576040517f08c379a0000000000000000000000000000000000000000000000000000000008152600401610a0690613437565b60405180910390fd5b610a198383611879565b505050565b6000601360009054906101000a900473ffffffffffffffffffffffffffffffffffffffff1673ffffffffffffffffffffffffffffffffffffffff16610a61611871565b73ffffffffffffffffffffffffffffffffffffffff1614610ab7576040517f08c379a0000000000000000000000000000000000000000000000000000000008152600401610aae90613537565b60405180910390fd5b601360009054906101000a900473ffffffffffffffffffffffffffffffffffffffff1673ffffffffffffffffffffffffffffffffffffffff16610af8611871565b73ffffffffffffffffffffffffffffffffffffffff1614610b4e576040517f08c379a0000000000000000000000000000000000000000000000000000000008152600401610b4590613597565b60405180910390fd5b6006601481819054906101000a900461ffff1680929190610b6e906139c0565b91906101000a81548161ffff021916908361ffff160217905550506000610ba8600660149054906101000a900461ffff1661ffff16611932565b9050610bc8600660149054906101000a900461ffff1661ffff1682611978565b50610bee610bd4611871565b600660149054906101000a900461ffff1661ffff16611b30565b7f4ef9a556ed96091a58268613d9be973f305de592213a4cf9f8960ce831379ec5600660149054906101000a900461ffff16604051610c2d91906135ee565b60405180910390a1600660149054906101000a900461ffff1661ffff1691505090565b610c61610c5b611871565b82611b4e565b610ca0576040517f08c379a0000000000000000000000000000000000000000000000000000000008152600401610c9790613577565b60405180910390fd5b610cab838383611c2c565b505050565b60078260098110610cc057600080fd5b018181548110610ccf57600080fd5b9060005260206000209060209182820401919006915091509054906101000a900460ff1681565b610cfe611871565b73ffffffffffffffffffffffffffffffffffffffff16610d1c6110c2565b73ffffffffffffffffffffffffffffffffffffffff1614610d72576040517f08c379a0000000000000000000000000000000000000000000000000000000008152600401610d69906134d7565b60405180910390fd5b610d7a6110c2565b73ffffffffffffffffffffffffffffffffffffffff166108fc479081150290604051600060405180830381858888f19350505050158015610dbf573d6000803e3d6000fd5b50565b610ddd838383604051806020016040528060008152506112df565b505050565b601360009054906101000a900473ffffffffffffffffffffffffffffffffffffffff1673ffffffffffffffffffffffffffffffffffffffff16610e23611871565b73ffffffffffffffffffffffffffffffffffffffff1614610e79576040517f08c379a0000000000000000000000000000000000000000000000000000000008152600401610e7090613537565b60405180910390fd5b610e8281611e88565b7ff803933b4fa290599e801fcfe51b387807a92b14b767d26c9d101c7f3e9491d081604051610eb19190613609565b60405180910390a150565b600660149054906101000a900461ffff1681565b6000806002600084815260200190815260200160002060009054906101000a900473ffffffffffffffffffffffffffffffffffffffff169050600073ffffffffffffffffffffffffffffffffffffffff168173ffffffffffffffffffffffffffffffffffffffff161415610f79576040517f08c379a0000000000000000000000000000000000000000000000000000000008152600401610f7090613477565b60405180910390fd5b80915050919050565b60008073ffffffffffffffffffffffffffffffffffffffff168273ffffffffffffffffffffffffffffffffffffffff161415610ff3576040517f08c379a0000000000000000000000000000000000000000000000000000000008152600401610fea90613457565b60405180910390fd5b600360008373ffffffffffffffffffffffffffffffffffffffff1673ffffffffffffffffffffffffffffffffffffffff168152602001908152602001600020549050919050565b611042611871565b73ffffffffffffffffffffffffffffffffffffffff166110606110c2565b73ffffffffffffffffffffffffffffffffffffffff16146110b6576040517f08c379a00000000000000000000000000000000000000000000000000000000081526004016110ad906134d7565b60405180910390fd5b6110c06000611f99565b565b6000600660009054906101000a900473ffffffffffffffffffffffffffffffffffffffff16905090565b6110f46128d1565b60106000838152602001908152602001600020604051806101200160405290816000820160009054906101000a900460ff1660ff1660ff1681526020016000820160019054906101000a900460ff1660ff1660ff1681526020016000820160029054906101000a900460ff1660ff1660ff1681526020016000820160039054906101000a900460ff1660ff1660ff1681526020016000820160049054906101000a900460ff1660ff1660ff1681526020016000820160059054906101000a900460ff1660ff1660ff1681526020016000820160069054906101000a900460ff1660ff1660ff1681526020016000820160079054906101000a900460ff1660ff1660ff1681526020016000820160089054906101000a900460ff1660ff1660ff16815250509050919050565b60606001805461122e9061395d565b80601f016020809104026020016040519081016040528092919081815260200182805461125a9061395d565b80156112a75780601f1061127c576101008083540402835291602001916112a7565b820191906000526020600020905b81548152906001019060200180831161128a57829003601f168201915b5050505050905090565b60116020528060005260406000206000915090505481565b6112db6112d4611871565b838361205f565b5050565b6112f06112ea611871565b83611b4e565b61132f576040517f08c379a000000000000000000000000000000000000000000000000000000000815260040161132690613577565b60405180910390fd5b61133b848484846121cc565b50505050565b606061134c82611805565b61138b576040517f08c379a000000000000000000000000000000000000000000000000000000000815260040161138290613517565b60405180910390fd5b601260009054906101000a900473ffffffffffffffffffffffffffffffffffffffff1673ffffffffffffffffffffffffffffffffffffffff1663c87b56dd836040518263ffffffff1660e01b81526004016113e69190613609565b60006040518083038186803b1580156113fe57600080fd5b505afa158015611412573d6000803e3d6000fd5b505050506040513d6000823e3d601f19601f8201168201806040525081019061143b9190612c9e565b9050919050565b60106020528060005260406000206000915090508060000160009054906101000a900460ff16908060000160019054906101000a900460ff16908060000160029054906101000a900460ff16908060000160039054906101000a900460ff16908060000160049054906101000a900460ff16908060000160059054906101000a900460ff16908060000160069054906101000a900460ff16908060000160079054906101000a900460ff16908060000160089054906101000a900460ff16905089565b601260009054906101000a900473ffffffffffffffffffffffffffffffffffffffff1681565b6000600560008473ffffffffffffffffffffffffffffffffffffffff1673ffffffffffffffffffffffffffffffffffffffff16815260200190815260200160002060008373ffffffffffffffffffffffffffffffffffffffff1673ffffffffffffffffffffffffffffffffffffffff16815260200190815260200160002060009054906101000a900460ff16905092915050565b6115c7611871565b73ffffffffffffffffffffffffffffffffffffffff166115e56110c2565b73ffffffffffffffffffffffffffffffffffffffff161461163b576040517f08c379a0000000000000000000000000000000000000000000000000000000008152600401611632906134d7565b60405180910390fd5b600073ffffffffffffffffffffffffffffffffffffffff168173ffffffffffffffffffffffffffffffffffffffff1614156116ab576040517f08c379a00000000000000000000000000000000000000000000000000000000081526004016116a290613397565b60405180910390fd5b6116b481611f99565b50565b7f000000000000000000000000000000000000000000000000000000000000000081565b6116e3611871565b73ffffffffffffffffffffffffffffffffffffffff166117016110c2565b73ffffffffffffffffffffffffffffffffffffffff1614611757576040517f08c379a000000000000000000000000000000000000000000000000000000000815260040161174e906134d7565b60405180910390fd5b80601360006101000a81548173ffffffffffffffffffffffffffffffffffffffff021916908373ffffffffffffffffffffffffffffffffffffffff16021790555050565b60007f01ffc9a7000000000000000000000000000000000000000000000000000000007bffffffffffffffffffffffffffffffffffffffffffffffffffffffff1916827bffffffffffffffffffffffffffffffffffffffffffffffffffffffff1916149050919050565b60008073ffffffffffffffffffffffffffffffffffffffff166002600084815260200190815260200160002060009054906101000a900473ffffffffffffffffffffffffffffffffffffffff1673ffffffffffffffffffffffffffffffffffffffff1614159050919050565b600033905090565b816004600083815260200190815260200160002060006101000a81548173ffffffffffffffffffffffffffffffffffffffff021916908373ffffffffffffffffffffffffffffffffffffffff160217905550808273ffffffffffffffffffffffffffffffffffffffff166118ec83610ed0565b73ffffffffffffffffffffffffffffffffffffffff167f8c5be1e5ebec7d5bd14f71427d1e84f3dd0314c0f7b2291e5b200ac8c7c3b92560405160405180910390a45050565b6000326001436119429190613818565b40428460405160200161195894939291906131c7565b6040516020818303038152906040528051906020012060001c9050919050565b6119806128d1565b61198982612228565b905060006011600061199a84612395565b8152602001908152602001600020541415611b1557806010600085815260200190815260200160002060008201518160000160006101000a81548160ff021916908360ff16021790555060208201518160000160016101000a81548160ff021916908360ff16021790555060408201518160000160026101000a81548160ff021916908360ff16021790555060608201518160000160036101000a81548160ff021916908360ff16021790555060808201518160000160046101000a81548160ff021916908360ff16021790555060a08201518160000160056101000a81548160ff021916908360ff16021790555060c08201518160000160066101000a81548160ff021916908360ff16021790555060e08201518160000160076101000a81548160ff021916908360ff1602179055506101008201518160000160086101000a81548160ff021916908360ff1602179055509050508260116000611afe84612395565b815260200190815260200160002081905550611b2a565b611b2783611b2284611932565b611978565b90505b92915050565b611b4a8282604051806020016040528060008152506123fe565b5050565b6000611b5982611805565b611b98576040517f08c379a0000000000000000000000000000000000000000000000000000000008152600401611b8f90613417565b60405180910390fd5b6000611ba383610ed0565b90508073ffffffffffffffffffffffffffffffffffffffff168473ffffffffffffffffffffffffffffffffffffffff161480611c1257508373ffffffffffffffffffffffffffffffffffffffff16611bfa84610881565b73ffffffffffffffffffffffffffffffffffffffff16145b80611c235750611c22818561152b565b5b91505092915050565b8273ffffffffffffffffffffffffffffffffffffffff16611c4c82610ed0565b73ffffffffffffffffffffffffffffffffffffffff1614611ca2576040517f08c379a0000000000000000000000000000000000000000000000000000000008152600401611c99906134f7565b60405180910390fd5b600073ffffffffffffffffffffffffffffffffffffffff168273ffffffffffffffffffffffffffffffffffffffff161415611d12576040517f08c379a0000000000000000000000000000000000000000000000000000000008152600401611d09906133d7565b60405180910390fd5b611d1d838383612459565b611d28600082611879565b6001600360008573ffffffffffffffffffffffffffffffffffffffff1673ffffffffffffffffffffffffffffffffffffffff1681526020019081526020016000206000828254611d789190613818565b925050819055506001600360008473ffffffffffffffffffffffffffffffffffffffff1673ffffffffffffffffffffffffffffffffffffffff1681526020019081526020016000206000828254611dcf919061378b565b92505081905550816002600083815260200190815260200160002060006101000a81548173ffffffffffffffffffffffffffffffffffffffff021916908373ffffffffffffffffffffffffffffffffffffffff160217905550808273ffffffffffffffffffffffffffffffffffffffff168473ffffffffffffffffffffffffffffffffffffffff167fddf252ad1be2c89b69c2b068fc378daa952ba7f163c4a11628f55a4df523b3ef60405160405180910390a4505050565b6000611e9382610ed0565b9050611ea181600084612459565b611eac600083611879565b6001600360008373ffffffffffffffffffffffffffffffffffffffff1673ffffffffffffffffffffffffffffffffffffffff1681526020019081526020016000206000828254611efc9190613818565b925050819055506002600083815260200190815260200160002060006101000a81549073ffffffffffffffffffffffffffffffffffffffff021916905581600073ffffffffffffffffffffffffffffffffffffffff168273ffffffffffffffffffffffffffffffffffffffff167fddf252ad1be2c89b69c2b068fc378daa952ba7f163c4a11628f55a4df523b3ef60405160405180910390a45050565b6000600660009054906101000a900473ffffffffffffffffffffffffffffffffffffffff16905081600660006101000a81548173ffffffffffffffffffffffffffffffffffffffff021916908373ffffffffffffffffffffffffffffffffffffffff1602179055508173ffffffffffffffffffffffffffffffffffffffff168173ffffffffffffffffffffffffffffffffffffffff167f8be0079c531659141344cd1fd0a4f28419497f9722a3daafe3b4186f6b6457e060405160405180910390a35050565b8173ffffffffffffffffffffffffffffffffffffffff168373ffffffffffffffffffffffffffffffffffffffff1614156120ce576040517f08c379a00000000000000000000000000000000000000000000000000000000081526004016120c5906133f7565b60405180910390fd5b80600560008573ffffffffffffffffffffffffffffffffffffffff1673ffffffffffffffffffffffffffffffffffffffff16815260200190815260200160002060008473ffffffffffffffffffffffffffffffffffffffff1673ffffffffffffffffffffffffffffffffffffffff16815260200190815260200160002060006101000a81548160ff0219169083151502179055508173ffffffffffffffffffffffffffffffffffffffff168373ffffffffffffffffffffffffffffffffffffffff167f17307eab39ab6107e8899845ad3d59bd9653f200f220920489ca2b5937696c31836040516121bf919061331f565b60405180910390a3505050565b6121d7848484611c2c565b6121e38484848461245e565b612222576040517f08c379a000000000000000000000000000000000000000000000000000000000815260040161221990613377565b60405180910390fd5b50505050565b6122306128d1565b601082901c915061224661ffff831660006125f5565b816000019060ff16908160ff1681525050601082901c915061226d61ffff831660016125f5565b816020019060ff16908160ff1681525050601082901c915061229461ffff831660026125f5565b816040019060ff16908160ff1681525050601082901c91506122bb61ffff831660036125f5565b816060019060ff16908160ff1681525050601082901c91506122e261ffff831660046125f5565b816080019060ff16908160ff1681525050601082901c915061230961ffff831660056125f5565b8160a0019060ff16908160ff1681525050601082901c915061233061ffff831660066125f5565b8160c0019060ff16908160ff1681525050601082901c915061235761ffff831660076125f5565b8160e0019060ff16908160ff1681525050601082901c915061237e61ffff831660086125f5565b81610100019060ff16908160ff1681525050919050565b60006123f4826000015183602001518460400151856060015186608001518760a001518860c001518960e001518a61010001516040516020016123e099989796959493929190613215565b6040516020818303038152906040526126cd565b60001c9050919050565b61240883836126f0565b612415600084848461245e565b612454576040517f08c379a000000000000000000000000000000000000000000000000000000000815260040161244b90613377565b60405180910390fd5b505050565b505050565b600061247f8473ffffffffffffffffffffffffffffffffffffffff166128be565b156125e8578373ffffffffffffffffffffffffffffffffffffffff1663150b7a026124a8611871565b8786866040518563ffffffff1660e01b81526004016124ca94939291906132d3565b602060405180830381600087803b1580156124e457600080fd5b505af192505050801561251557506040513d601f19601f820116820180604052508101906125129190612c71565b60015b612598573d8060008114612545576040519150601f19603f3d011682016040523d82523d6000602084013e61254a565b606091505b50600081511415612590576040517f08c379a000000000000000000000000000000000000000000000000000000000815260040161258790613377565b60405180910390fd5b805181602001fd5b63150b7a0260e01b7bffffffffffffffffffffffffffffffffffffffffffffffffffffffff1916817bffffffffffffffffffffffffffffffffffffffffffffffffffffffff1916149150506125ed565b600190505b949350505050565b60008060078360ff166009811061260f5761260e613b24565b5b01805490508461261f9190613a66565b905060078360ff166009811061263857612637613b24565b5b018160ff168154811061264e5761264d613b24565b5b90600052602060002090602091828204019190069054906101000a900460ff1660ff1660088561ffff16901c61ffff16101561268d57809150506126c7565b60078360ff16600981106126a4576126a3613b24565b5b01805490506002826126b691906137e1565b60ff166126c39190613a35565b9150505b92915050565b600080825114156126e3576000801b90506126eb565b602082015190505b919050565b600073ffffffffffffffffffffffffffffffffffffffff168273ffffffffffffffffffffffffffffffffffffffff161415612760576040517f08c379a000000000000000000000000000000000000000000000000000000000815260040161275790613497565b60405180910390fd5b61276981611805565b156127a9576040517f08c379a00000000000000000000000000000000000000000000000000000000081526004016127a0906133b7565b60405180910390fd5b6127b560008383612459565b6001600360008473ffffffffffffffffffffffffffffffffffffffff1673ffffffffffffffffffffffffffffffffffffffff1681526020019081526020016000206000828254612805919061378b565b92505081905550816002600083815260200190815260200160002060006101000a81548173ffffffffffffffffffffffffffffffffffffffff021916908373ffffffffffffffffffffffffffffffffffffffff160217905550808273ffffffffffffffffffffffffffffffffffffffff16600073ffffffffffffffffffffffffffffffffffffffff167fddf252ad1be2c89b69c2b068fc378daa952ba7f163c4a11628f55a4df523b3ef60405160405180910390a45050565b600080823b905060008111915050919050565b604051806101200160405280600060ff168152602001600060ff168152602001600060ff168152602001600060ff168152602001600060ff168152602001600060ff168152602001600060ff168152602001600060ff168152602001600060ff1681525090565b600061294b612946846136f1565b6136cc565b90508281526020810184848401111561296757612966613b87565b5b61297284828561391b565b509392505050565b600061298d61298884613722565b6136cc565b9050828152602081018484840111156129a9576129a8613b87565b5b6129b484828561392a565b509392505050565b6000813590506129cb81614091565b92915050565b6000813590506129e0816140a8565b92915050565b6000813590506129f5816140bf565b92915050565b600081519050612a0a816140bf565b92915050565b600082601f830112612a2557612a24613b82565b5b8135612a35848260208601612938565b91505092915050565b600082601f830112612a5357612a52613b82565b5b8151612a6384826020860161297a565b91505092915050565b600081359050612a7b816140d6565b92915050565b600060208284031215612a9757612a96613b91565b5b6000612aa5848285016129bc565b91505092915050565b60008060408385031215612ac557612ac4613b91565b5b6000612ad3858286016129bc565b9250506020612ae4858286016129bc565b9150509250929050565b600080600060608486031215612b0757612b06613b91565b5b6000612b15868287016129bc565b9350506020612b26868287016129bc565b9250506040612b3786828701612a6c565b9150509250925092565b60008060008060808587031215612b5b57612b5a613b91565b5b6000612b69878288016129bc565b9450506020612b7a878288016129bc565b9350506040612b8b87828801612a6c565b925050606085013567ffffffffffffffff811115612bac57612bab613b8c565b5b612bb887828801612a10565b91505092959194509250565b60008060408385031215612bdb57612bda613b91565b5b6000612be9858286016129bc565b9250506020612bfa858286016129d1565b9150509250929050565b60008060408385031215612c1b57612c1a613b91565b5b6000612c29858286016129bc565b9250506020612c3a85828601612a6c565b9150509250929050565b600060208284031215612c5a57612c59613b91565b5b6000612c68848285016129e6565b91505092915050565b600060208284031215612c8757612c86613b91565b5b6000612c95848285016129fb565b91505092915050565b600060208284031215612cb457612cb3613b91565b5b600082015167ffffffffffffffff811115612cd257612cd1613b8c565b5b612cde84828501612a3e565b91505092915050565b600060208284031215612cfd57612cfc613b91565b5b6000612d0b84828501612a6c565b91505092915050565b60008060408385031215612d2b57612d2a613b91565b5b6000612d3985828601612a6c565b9250506020612d4a85828601612a6c565b9150509250929050565b612d5d8161384c565b82525050565b612d74612d6f8261384c565b6139eb565b82525050565b612d838161385e565b82525050565b612d9a612d958261386a565b6139fd565b82525050565b6000612dab82613753565b612db58185613769565b9350612dc581856020860161392a565b612dce81613b96565b840191505092915050565b612de2816138e5565b82525050565b6000612df38261375e565b612dfd818561377a565b9350612e0d81856020860161392a565b612e1681613b96565b840191505092915050565b6000612e2e60328361377a565b9150612e3982613bc1565b604082019050919050565b6000612e5160268361377a565b9150612e5c82613c10565b604082019050919050565b6000612e74601c8361377a565b9150612e7f82613c5f565b602082019050919050565b6000612e9760248361377a565b9150612ea282613c88565b604082019050919050565b6000612eba60198361377a565b9150612ec582613cd7565b602082019050919050565b6000612edd602c8361377a565b9150612ee882613d00565b604082019050919050565b6000612f0060388361377a565b9150612f0b82613d4f565b604082019050919050565b6000612f23602a8361377a565b9150612f2e82613d9e565b604082019050919050565b6000612f4660298361377a565b9150612f5182613ded565b604082019050919050565b6000612f6960208361377a565b9150612f7482613e3c565b602082019050919050565b6000612f8c602c8361377a565b9150612f9782613e65565b604082019050919050565b6000612faf60208361377a565b9150612fba82613eb4565b602082019050919050565b6000612fd260298361377a565b9150612fdd82613edd565b604082019050919050565b6000612ff5602f8361377a565b915061300082613f2c565b604082019050919050565b600061301860228361377a565b915061302382613f7b565b604082019050919050565b600061303b60218361377a565b915061304682613fca565b604082019050919050565b600061305e60318361377a565b915061306982614019565b604082019050919050565b6000613081601b8361377a565b915061308c82614068565b602082019050919050565b610120820160008201516130ae6000850182613192565b5060208201516130c16020850182613192565b5060408201516130d46040850182613192565b5060608201516130e76060850182613192565b5060808201516130fa6080850182613192565b5060a082015161310d60a0850182613192565b5060c082015161312060c0850182613192565b5060e082015161313360e0850182613192565b50610100820151613148610100850182613192565b50505050565b613157816138a0565b82525050565b61316681613909565b82525050565b613175816138ce565b82525050565b61318c613187826138ce565b613a19565b82525050565b61319b816138d8565b82525050565b6131aa816138d8565b82525050565b6131c16131bc826138d8565b613a23565b82525050565b60006131d38287612d63565b6014820191506131e38286612d89565b6020820191506131f3828561317b565b602082019150613203828461317b565b60208201915081905095945050505050565b6000613221828c6131b0565b600182019150613231828b6131b0565b600182019150613241828a6131b0565b60018201915061325182896131b0565b60018201915061326182886131b0565b60018201915061327182876131b0565b60018201915061328182866131b0565b60018201915061329182856131b0565b6001820191506132a182846131b0565b6001820191508190509a9950505050505050505050565b60006020820190506132cd6000830184612d54565b92915050565b60006080820190506132e86000830187612d54565b6132f56020830186612d54565b613302604083018561316c565b81810360608301526133148184612da0565b905095945050505050565b60006020820190506133346000830184612d7a565b92915050565b600060208201905061334f6000830184612dd9565b92915050565b6000602082019050818103600083015261336f8184612de8565b905092915050565b6000602082019050818103600083015261339081612e21565b9050919050565b600060208201905081810360008301526133b081612e44565b9050919050565b600060208201905081810360008301526133d081612e67565b9050919050565b600060208201905081810360008301526133f081612e8a565b9050919050565b6000602082019050818103600083015261341081612ead565b9050919050565b6000602082019050818103600083015261343081612ed0565b9050919050565b6000602082019050818103600083015261345081612ef3565b9050919050565b6000602082019050818103600083015261347081612f16565b9050919050565b6000602082019050818103600083015261349081612f39565b9050919050565b600060208201905081810360008301526134b081612f5c565b9050919050565b600060208201905081810360008301526134d081612f7f565b9050919050565b600060208201905081810360008301526134f081612fa2565b9050919050565b6000602082019050818103600083015261351081612fc5565b9050919050565b6000602082019050818103600083015261353081612fe8565b9050919050565b600060208201905081810360008301526135508161300b565b9050919050565b600060208201905081810360008301526135708161302e565b9050919050565b6000602082019050818103600083015261359081613051565b9050919050565b600060208201905081810360008301526135b081613074565b9050919050565b6000610120820190506135cd6000830184613097565b92915050565b60006020820190506135e8600083018461314e565b92915050565b6000602082019050613603600083018461315d565b92915050565b600060208201905061361e600083018461316c565b92915050565b600060208201905061363960008301846131a1565b92915050565b600061012082019050613655600083018c6131a1565b613662602083018b6131a1565b61366f604083018a6131a1565b61367c60608301896131a1565b61368960808301886131a1565b61369660a08301876131a1565b6136a360c08301866131a1565b6136b060e08301856131a1565b6136be6101008301846131a1565b9a9950505050505050505050565b60006136d66136e7565b90506136e2828261398f565b919050565b6000604051905090565b600067ffffffffffffffff82111561370c5761370b613b53565b5b61371582613b96565b9050602081019050919050565b600067ffffffffffffffff82111561373d5761373c613b53565b5b61374682613b96565b9050602081019050919050565b600081519050919050565b600081519050919050565b600082825260208201905092915050565b600082825260208201905092915050565b6000613796826138ce565b91506137a1836138ce565b9250827fffffffffffffffffffffffffffffffffffffffffffffffffffffffffffffffff038211156137d6576137d5613a97565b5b828201905092915050565b60006137ec826138d8565b91506137f7836138d8565b92508260ff0382111561380d5761380c613a97565b5b828201905092915050565b6000613823826138ce565b915061382e836138ce565b92508282101561384157613840613a97565b5b828203905092915050565b6000613857826138ae565b9050919050565b60008115159050919050565b6000819050919050565b60007fffffffff0000000000000000000000000000000000000000000000000000000082169050919050565b600061ffff82169050919050565b600073ffffffffffffffffffffffffffffffffffffffff82169050919050565b6000819050919050565b600060ff82169050919050565b60006138f0826138f7565b9050919050565b6000613902826138ae565b9050919050565b6000613914826138a0565b9050919050565b82818337600083830152505050565b60005b8381101561394857808201518184015260208101905061392d565b83811115613957576000848401525b50505050565b6000600282049050600182168061397557607f821691505b6020821081141561398957613988613af5565b5b50919050565b61399882613b96565b810181811067ffffffffffffffff821117156139b7576139b6613b53565b5b80604052505050565b60006139cb826138a0565b915061ffff8214156139e0576139df613a97565b5b600182019050919050565b60006139f682613a07565b9050919050565b6000819050919050565b6000613a1282613bb4565b9050919050565b6000819050919050565b6000613a2e82613ba7565b9050919050565b6000613a40826138ce565b9150613a4b836138ce565b925082613a5b57613a5a613ac6565b5b828206905092915050565b6000613a71826138d8565b9150613a7c836138d8565b925082613a8c57613a8b613ac6565b5b828206905092915050565b7f4e487b7100000000000000000000000000000000000000000000000000000000600052601160045260246000fd5b7f4e487b7100000000000000000000000000000000000000000000000000000000600052601260045260246000fd5b7f4e487b7100000000000000000000000000000000000000000000000000000000600052602260045260246000fd5b7f4e487b7100000000000000000000000000000000000000000000000000000000600052603260045260246000fd5b7f4e487b7100000000000000000000000000000000000000000000000000000000600052604160045260246000fd5b600080fd5b600080fd5b600080fd5b600080fd5b6000601f19601f8301169050919050565b60008160f81b9050919050565b60008160601b9050919050565b7f4552433732313a207472616e7366657220746f206e6f6e20455243373231526560008201527f63656976657220696d706c656d656e7465720000000000000000000000000000602082015250565b7f4f776e61626c653a206e6577206f776e657220697320746865207a65726f206160008201527f6464726573730000000000000000000000000000000000000000000000000000602082015250565b7f4552433732313a20746f6b656e20616c7265616479206d696e74656400000000600082015250565b7f4552433732313a207472616e7366657220746f20746865207a65726f2061646460008201527f7265737300000000000000000000000000000000000000000000000000000000602082015250565b7f4552433732313a20617070726f766520746f2063616c6c657200000000000000600082015250565b7f4552433732313a206f70657261746f7220717565727920666f72206e6f6e657860008201527f697374656e7420746f6b656e0000000000000000000000000000000000000000602082015250565b7f4552433732313a20617070726f76652063616c6c6572206973206e6f74206f7760008201527f6e6572206e6f7220617070726f76656420666f7220616c6c0000000000000000602082015250565b7f4552433732313a2062616c616e636520717565727920666f7220746865207a6560008201527f726f206164647265737300000000000000000000000000000000000000000000602082015250565b7f4552433732313a206f776e657220717565727920666f72206e6f6e657869737460008201527f656e7420746f6b656e0000000000000000000000000000000000000000000000602082015250565b7f4552433732313a206d696e7420746f20746865207a65726f2061646472657373600082015250565b7f4552433732313a20617070726f76656420717565727920666f72206e6f6e657860008201527f697374656e7420746f6b656e0000000000000000000000000000000000000000602082015250565b7f4f776e61626c653a2063616c6c6572206973206e6f7420746865206f776e6572600082015250565b7f4552433732313a207472616e73666572206f6620746f6b656e2074686174206960008201527f73206e6f74206f776e0000000000000000000000000000000000000000000000602082015250565b7f4552433732314d657461646174613a2055524920717565727920666f72206e6f60008201527f6e6578697374656e7420746f6b656e0000000000000000000000000000000000602082015250565b7f4f6e6c79206d696e7465722063616e2063616c6c20746869732066756e63746960008201527f6f6e000000000000000000000000000000000000000000000000000000000000602082015250565b7f4552433732313a20617070726f76616c20746f2063757272656e74206f776e6560008201527f7200000000000000000000000000000000000000000000000000000000000000602082015250565b7f4552433732313a207472616e736665722063616c6c6572206973206e6f74206f60008201527f776e6572206e6f7220617070726f766564000000000000000000000000000000602082015250565b7f4f6e6c792061756374696f6e20686f7573652063616e206d696e740000000000600082015250565b61409a8161384c565b81146140a557600080fd5b50565b6140b18161385e565b81146140bc57600080fd5b50565b6140c881613874565b81146140d357600080fd5b50565b6140df816138ce565b81146140ea57600080fd5b5056fea26469706673582212205ba4fae39cf6960942cc28bfe6806199416ff3fe6375a74eb2f6d00cbaeeab5164736f6c63430008060033",
  "linkReferences": {},
  "deployedLinkReferences": {}
}