{
  "_format": "hh-sol-artifact-1",
  "contractName": "CarsTraits",
  "sourceName": "contracts/CarsTraits.sol",
  "abi": [
    {
      "inputs": [],
      "stateMutability": "nonpayable",
      "type": "constructor"
    },
    {
      "anonymous": false,
      "inputs": [
        {
          "indexed": true,
          "internalType": "address",
          "name": "previousOwner",
          "type": "address"
        },
        {
          "indexed": true,
          "internalType": "address",
          "name": "newOwner",
          "type": "address"
        }
      ],
      "name": "OwnershipTransferred",
      "type": "event"
    },
    {
      "inputs": [],
      "name": "carTokenContract",
      "outputs": [
        {
          "internalType": "contract ICarsToken",
          "name": "",
          "type": "address"
        }
      ],
      "stateMutability": "view",
      "type": "function"
    },
    {
      "inputs": [
        {
          "internalType": "uint256",
          "name": "tokenId",
          "type": "uint256"
        }
      ],
      "name": "compileAttributes",
      "outputs": [
        {
          "internalType": "string",
          "name": "",
          "type": "string"
        }
      ],
      "stateMutability": "view",
      "type": "function"
    },
    {
      "inputs": [
        {
          "internalType": "uint256",
          "name": "tokenId",
          "type": "uint256"
        }
      ],
      "name": "drawSVG",
      "outputs": [
        {
          "internalType": "string",
          "name": "",
          "type": "string"
        }
      ],
      "stateMutability": "view",
      "type": "function"
    },
    {
      "inputs": [],
      "name": "owner",
      "outputs": [
        {
          "internalType": "address",
          "name": "",
          "type": "address"
        }
      ],
      "stateMutability": "view",
      "type": "function"
    },
    {
      "inputs": [],
      "name": "renounceOwnership",
      "outputs": [],
      "stateMutability": "nonpayable",
      "type": "function"
    },
    {
      "inputs": [
        {
          "internalType": "address",
          "name": "_carContractAddress",
          "type": "address"
        }
      ],
      "name": "setCarContract",
      "outputs": [],
      "stateMutability": "nonpayable",
      "type": "function"
    },
    {
      "inputs": [
        {
          "internalType": "uint256",
          "name": "tokenId",
          "type": "uint256"
        }
      ],
      "name": "tokenURI",
      "outputs": [
        {
          "internalType": "string",
          "name": "",
          "type": "string"
        }
      ],
      "stateMutability": "view",
      "type": "function"
    },
    {
      "inputs": [
        {
          "internalType": "uint8",
          "name": "",
          "type": "uint8"
        },
        {
          "internalType": "uint8",
          "name": "",
          "type": "uint8"
        }
      ],
      "name": "traitData",
      "outputs": [
        {
          "internalType": "string",
          "name": "name",
          "type": "string"
        },
        {
          "internalType": "string",
          "name": "png",
          "type": "string"
        }
      ],
      "stateMutability": "view",
      "type": "function"
    },
    {
      "inputs": [
        {
          "internalType": "address",
          "name": "newOwner",
          "type": "address"
        }
      ],
      "name": "transferOwnership",
      "outputs": [],
      "stateMutability": "nonpayable",
      "type": "function"
    },
    {
      "inputs": [
        {
          "internalType": "uint8",
          "name": "traitType",
          "type": "uint8"
        },
        {
          "internalType": "uint8[]",
          "name": "traitIds",
          "type": "uint8[]"
        },
        {
          "components": [
            {
              "internalType": "string",
              "name": "name",
              "type": "string"
            },
            {
              "internalType": "string",
              "name": "png",
              "type": "string"
            }
          ],
          "internalType": "struct CarsTraits.Trait[]",
          "name": "traits",
          "type": "tuple[]"
        }
      ],
      "name": "uploadTraits",
      "outputs": [],
      "stateMutability": "nonpayable",
      "type": "function"
    }
  ],
  "bytecode": "0x60806040526040518061012001604052806040518060400160405280600a81526020017f6261636b67726f756e640000000000000000000000000000000000000000000081525081526020016040518060400160405280600681526020017f67726f756e64000000000000000000000000000000000000000000000000000081525081526020016040518060400160405280600481526020017f626f64790000000000000000000000000000000000000000000000000000000081525081526020016040518060400160405280600681526020017f626f74746f6d000000000000000000000000000000000000000000000000000081525081526020016040518060400160405280600581526020017f776865656c00000000000000000000000000000000000000000000000000000081525081526020016040518060400160405280600981526020017f686561646c69676874000000000000000000000000000000000000000000000081525081526020016040518060400160405280600681526020017f77696e646f77000000000000000000000000000000000000000000000000000081525081526020016040518060400160405280600781526020017f776561746865720000000000000000000000000000000000000000000000000081525081526020016040518060400160405280600481526020017f6d6973630000000000000000000000000000000000000000000000000000000081525081525060019060096200023392919062000334565b503480156200024157600080fd5b5062000262620002566200026860201b60201c565b6200027060201b60201c565b62000511565b600033905090565b60008060009054906101000a900473ffffffffffffffffffffffffffffffffffffffff169050816000806101000a81548173ffffffffffffffffffffffffffffffffffffffff021916908373ffffffffffffffffffffffffffffffffffffffff1602179055508173ffffffffffffffffffffffffffffffffffffffff168173ffffffffffffffffffffffffffffffffffffffff167f8be0079c531659141344cd1fd0a4f28419497f9722a3daafe3b4186f6b6457e060405160405180910390a35050565b82600981019282156200037b579160200282015b828111156200037a578251829080519060200190620003699291906200038e565b509160200191906001019062000348565b5b5090506200038a91906200041f565b5090565b8280546200039c90620004ac565b90600052602060002090601f016020900481019282620003c057600085556200040c565b82601f10620003db57805160ff19168380011785556200040c565b828001600101855582156200040c579182015b828111156200040b578251825591602001919060010190620003ee565b5b5090506200041b919062000447565b5090565b5b8082111562000443576000818162000439919062000466565b5060010162000420565b5090565b5b808211156200046257600081600090555060010162000448565b5090565b5080546200047490620004ac565b6000825580601f10620004885750620004a9565b601f016020900490600052602060002090810190620004a8919062000447565b5b50565b60006002820490506001821680620004c557607f821691505b60208210811415620004dc57620004db620004e2565b5b50919050565b7f4e487b7100000000000000000000000000000000000000000000000000000000600052602260045260246000fd5b613dde80620005216000396000f3fe608060405234801561001057600080fd5b506004361061009e5760003560e01c80639bf2ee35116100665780639bf2ee3514610147578063c728b84c14610178578063c87b56dd14610196578063d93ae3d9146101c6578063f2fde38b146101e25761009e565b806361556d75146100a357806368dba5e5146100bf578063715018a6146100ef5780637abecb86146100f95780638da5cb5b14610129575b600080fd5b6100bd60048036038101906100b89190612a95565b6101fe565b005b6100d960048036038101906100d49190612af0565b6102be565b6040516100e69190613298565b60405180910390f35b6100f7611050565b005b610113600480360381019061010e9190612af0565b6110d8565b6040516101209190613298565b60405180910390f35b610131611e8f565b60405161013e9190613262565b60405180910390f35b610161600480360381019061015c9190612bdf565b611eb8565b60405161016f9291906132ba565b60405180910390f35b610180611ff9565b60405161018d919061327d565b60405180910390f35b6101b060048036038101906101ab9190612af0565b61201f565b6040516101bd9190613298565b60405180910390f35b6101e060048036038101906101db9190612b4a565b612099565b005b6101fc60048036038101906101f79190612a95565b61231b565b005b610206612413565b73ffffffffffffffffffffffffffffffffffffffff16610224611e8f565b73ffffffffffffffffffffffffffffffffffffffff161461027a576040517f08c379a000000000000000000000000000000000000000000000000000000000815260040161027190613331565b60405180910390fd5b80600b60006101000a81548173ffffffffffffffffffffffffffffffffffffffff021916908373ffffffffffffffffffffffffffffffffffffffff16021790555050565b60606000600b60009054906101000a900473ffffffffffffffffffffffffffffffffffffffff1673ffffffffffffffffffffffffffffffffffffffff166394e56847846040518263ffffffff1660e01b815260040161031d9190613351565b6101206040518083038186803b15801561033657600080fd5b505afa15801561034a573d6000803e3d6000fd5b505050506040513d601f19601f8201168201806040525081019061036e9190612ac2565b905060606104d6600160006009811061038a57610389613762565b5b018054610396906135f8565b80601f01602080910402602001604051908101604052809291908181526020018280546103c2906135f8565b801561040f5780601f106103e45761010080835404028352916020019161040f565b820191906000526020600020905b8154815290600101906020018083116103f257829003601f168201915b5050505050600a60008060ff1681526020019081526020016000206000856000015160ff1660ff1681526020019081526020016000206000018054610453906135f8565b80601f016020809104026020016040519081016040528092919081815260200182805461047f906135f8565b80156104cc5780601f106104a1576101008083540402835291602001916104cc565b820191906000526020600020905b8154815290600101906020018083116104af57829003601f168201915b505050505061241b565b61063a600180600981106104ed576104ec613762565b5b0180546104f9906135f8565b80601f0160208091040260200160405190810160405280929190818152602001828054610525906135f8565b80156105725780601f1061054757610100808354040283529160200191610572565b820191906000526020600020905b81548152906001019060200180831161055557829003601f168201915b5050505050600a6000600160ff1681526020019081526020016000206000866020015160ff1660ff16815260200190815260200160002060000180546105b7906135f8565b80601f01602080910402602001604051908101604052809291908181526020018280546105e3906135f8565b80156106305780601f1061060557610100808354040283529160200191610630565b820191906000526020600020905b81548152906001019060200180831161061357829003601f168201915b505050505061241b565b61079f600160026009811061065257610651613762565b5b01805461065e906135f8565b80601f016020809104026020016040519081016040528092919081815260200182805461068a906135f8565b80156106d75780601f106106ac576101008083540402835291602001916106d7565b820191906000526020600020905b8154815290600101906020018083116106ba57829003601f168201915b5050505050600a6000600260ff1681526020019081526020016000206000876040015160ff1660ff168152602001908152602001600020600001805461071c906135f8565b80601f0160208091040260200160405190810160405280929190818152602001828054610748906135f8565b80156107955780601f1061076a57610100808354040283529160200191610795565b820191906000526020600020905b81548152906001019060200180831161077857829003601f168201915b505050505061241b565b61090460016003600981106107b7576107b6613762565b5b0180546107c3906135f8565b80601f01602080910402602001604051908101604052809291908181526020018280546107ef906135f8565b801561083c5780601f106108115761010080835404028352916020019161083c565b820191906000526020600020905b81548152906001019060200180831161081f57829003601f168201915b5050505050600a6000600360ff1681526020019081526020016000206000886060015160ff1660ff1681526020019081526020016000206000018054610881906135f8565b80601f01602080910402602001604051908101604052809291908181526020018280546108ad906135f8565b80156108fa5780601f106108cf576101008083540402835291602001916108fa565b820191906000526020600020905b8154815290600101906020018083116108dd57829003601f168201915b505050505061241b565b610a69600160046009811061091c5761091b613762565b5b018054610928906135f8565b80601f0160208091040260200160405190810160405280929190818152602001828054610954906135f8565b80156109a15780601f10610976576101008083540402835291602001916109a1565b820191906000526020600020905b81548152906001019060200180831161098457829003601f168201915b5050505050600a6000600460ff1681526020019081526020016000206000896080015160ff1660ff16815260200190815260200160002060000180546109e6906135f8565b80601f0160208091040260200160405190810160405280929190818152602001828054610a12906135f8565b8015610a5f5780601f10610a3457610100808354040283529160200191610a5f565b820191906000526020600020905b815481529060010190602001808311610a4257829003601f168201915b505050505061241b565b610bce6001600560098110610a8157610a80613762565b5b018054610a8d906135f8565b80601f0160208091040260200160405190810160405280929190818152602001828054610ab9906135f8565b8015610b065780601f10610adb57610100808354040283529160200191610b06565b820191906000526020600020905b815481529060010190602001808311610ae957829003601f168201915b5050505050600a6000600560ff16815260200190815260200160002060008a60a0015160ff1660ff1681526020019081526020016000206000018054610b4b906135f8565b80601f0160208091040260200160405190810160405280929190818152602001828054610b77906135f8565b8015610bc45780601f10610b9957610100808354040283529160200191610bc4565b820191906000526020600020905b815481529060010190602001808311610ba757829003601f168201915b505050505061241b565b610d336001600660098110610be657610be5613762565b5b018054610bf2906135f8565b80601f0160208091040260200160405190810160405280929190818152602001828054610c1e906135f8565b8015610c6b5780601f10610c4057610100808354040283529160200191610c6b565b820191906000526020600020905b815481529060010190602001808311610c4e57829003601f168201915b5050505050600a6000600660ff16815260200190815260200160002060008b60c0015160ff1660ff1681526020019081526020016000206000018054610cb0906135f8565b80601f0160208091040260200160405190810160405280929190818152602001828054610cdc906135f8565b8015610d295780601f10610cfe57610100808354040283529160200191610d29565b820191906000526020600020905b815481529060010190602001808311610d0c57829003601f168201915b505050505061241b565b610e986001600760098110610d4b57610d4a613762565b5b018054610d57906135f8565b80601f0160208091040260200160405190810160405280929190818152602001828054610d83906135f8565b8015610dd05780601f10610da557610100808354040283529160200191610dd0565b820191906000526020600020905b815481529060010190602001808311610db357829003601f168201915b5050505050600a6000600760ff16815260200190815260200160002060008c60e0015160ff1660ff1681526020019081526020016000206000018054610e15906135f8565b80601f0160208091040260200160405190810160405280929190818152602001828054610e41906135f8565b8015610e8e5780601f10610e6357610100808354040283529160200191610e8e565b820191906000526020600020905b815481529060010190602001808311610e7157829003601f168201915b505050505061241b565b610ffe6001600860098110610eb057610eaf613762565b5b018054610ebc906135f8565b80601f0160208091040260200160405190810160405280929190818152602001828054610ee8906135f8565b8015610f355780601f10610f0a57610100808354040283529160200191610f35565b820191906000526020600020905b815481529060010190602001808311610f1857829003601f168201915b5050505050600a6000600860ff16815260200190815260200160002060008d610100015160ff1660ff1681526020019081526020016000206000018054610f7b906135f8565b80601f0160208091040260200160405190810160405280929190818152602001828054610fa7906135f8565b8015610ff45780601f10610fc957610100808354040283529160200191610ff4565b820191906000526020600020905b815481529060010190602001808311610fd757829003601f168201915b505050505061241b565b60405160200161101699989796959493929190613014565b6040516020818303038152906040529050806040516020016110389190613195565b60405160208183030381529060405292505050919050565b611058612413565b73ffffffffffffffffffffffffffffffffffffffff16611076611e8f565b73ffffffffffffffffffffffffffffffffffffffff16146110cc576040517f08c379a00000000000000000000000000000000000000000000000000000000081526004016110c390613331565b60405180910390fd5b6110d66000612447565b565b60606000600b60009054906101000a900473ffffffffffffffffffffffffffffffffffffffff1673ffffffffffffffffffffffffffffffffffffffff166394e56847846040518263ffffffff1660e01b81526004016111379190613351565b6101206040518083038186803b15801561115057600080fd5b505afa158015611164573d6000803e3d6000fd5b505050506040513d601f19601f820116820180604052508101906111889190612ac2565b905060006112f4600a60008060ff1681526020019081526020016000206000846000015160ff1660ff1681526020019081526020016000206040518060400160405290816000820180546111db906135f8565b80601f0160208091040260200160405190810160405280929190818152602001828054611207906135f8565b80156112545780601f1061122957610100808354040283529160200191611254565b820191906000526020600020905b81548152906001019060200180831161123757829003601f168201915b5050505050815260200160018201805461126d906135f8565b80601f0160208091040260200160405190810160405280929190818152602001828054611299906135f8565b80156112e65780601f106112bb576101008083540402835291602001916112e6565b820191906000526020600020905b8154815290600101906020018083116112c957829003601f168201915b50505050508152505061250b565b61145d600a6000600160ff1681526020019081526020016000206000856020015160ff1660ff168152602001908152602001600020604051806040016040529081600082018054611344906135f8565b80601f0160208091040260200160405190810160405280929190818152602001828054611370906135f8565b80156113bd5780601f10611392576101008083540402835291602001916113bd565b820191906000526020600020905b8154815290600101906020018083116113a057829003601f168201915b505050505081526020016001820180546113d6906135f8565b80601f0160208091040260200160405190810160405280929190818152602001828054611402906135f8565b801561144f5780601f106114245761010080835404028352916020019161144f565b820191906000526020600020905b81548152906001019060200180831161143257829003601f168201915b50505050508152505061250b565b6115c6600a6000600260ff1681526020019081526020016000206000866040015160ff1660ff1681526020019081526020016000206040518060400160405290816000820180546114ad906135f8565b80601f01602080910402602001604051908101604052809291908181526020018280546114d9906135f8565b80156115265780601f106114fb57610100808354040283529160200191611526565b820191906000526020600020905b81548152906001019060200180831161150957829003601f168201915b5050505050815260200160018201805461153f906135f8565b80601f016020809104026020016040519081016040528092919081815260200182805461156b906135f8565b80156115b85780601f1061158d576101008083540402835291602001916115b8565b820191906000526020600020905b81548152906001019060200180831161159b57829003601f168201915b50505050508152505061250b565b61172f600a6000600360ff1681526020019081526020016000206000876060015160ff1660ff168152602001908152602001600020604051806040016040529081600082018054611616906135f8565b80601f0160208091040260200160405190810160405280929190818152602001828054611642906135f8565b801561168f5780601f106116645761010080835404028352916020019161168f565b820191906000526020600020905b81548152906001019060200180831161167257829003601f168201915b505050505081526020016001820180546116a8906135f8565b80601f01602080910402602001604051908101604052809291908181526020018280546116d4906135f8565b80156117215780601f106116f657610100808354040283529160200191611721565b820191906000526020600020905b81548152906001019060200180831161170457829003601f168201915b50505050508152505061250b565b611898600a6000600460ff1681526020019081526020016000206000886080015160ff1660ff16815260200190815260200160002060405180604001604052908160008201805461177f906135f8565b80601f01602080910402602001604051908101604052809291908181526020018280546117ab906135f8565b80156117f85780601f106117cd576101008083540402835291602001916117f8565b820191906000526020600020905b8154815290600101906020018083116117db57829003601f168201915b50505050508152602001600182018054611811906135f8565b80601f016020809104026020016040519081016040528092919081815260200182805461183d906135f8565b801561188a5780601f1061185f5761010080835404028352916020019161188a565b820191906000526020600020905b81548152906001019060200180831161186d57829003601f168201915b50505050508152505061250b565b611a01600a6000600560ff16815260200190815260200160002060008960a0015160ff1660ff1681526020019081526020016000206040518060400160405290816000820180546118e8906135f8565b80601f0160208091040260200160405190810160405280929190818152602001828054611914906135f8565b80156119615780601f1061193657610100808354040283529160200191611961565b820191906000526020600020905b81548152906001019060200180831161194457829003601f168201915b5050505050815260200160018201805461197a906135f8565b80601f01602080910402602001604051908101604052809291908181526020018280546119a6906135f8565b80156119f35780601f106119c8576101008083540402835291602001916119f3565b820191906000526020600020905b8154815290600101906020018083116119d657829003601f168201915b50505050508152505061250b565b611b6a600a6000600660ff16815260200190815260200160002060008a60c0015160ff1660ff168152602001908152602001600020604051806040016040529081600082018054611a51906135f8565b80601f0160208091040260200160405190810160405280929190818152602001828054611a7d906135f8565b8015611aca5780601f10611a9f57610100808354040283529160200191611aca565b820191906000526020600020905b815481529060010190602001808311611aad57829003601f168201915b50505050508152602001600182018054611ae3906135f8565b80601f0160208091040260200160405190810160405280929190818152602001828054611b0f906135f8565b8015611b5c5780601f10611b3157610100808354040283529160200191611b5c565b820191906000526020600020905b815481529060010190602001808311611b3f57829003601f168201915b50505050508152505061250b565b611cd3600a6000600760ff16815260200190815260200160002060008b60e0015160ff1660ff168152602001908152602001600020604051806040016040529081600082018054611bba906135f8565b80601f0160208091040260200160405190810160405280929190818152602001828054611be6906135f8565b8015611c335780601f10611c0857610100808354040283529160200191611c33565b820191906000526020600020905b815481529060010190602001808311611c1657829003601f168201915b50505050508152602001600182018054611c4c906135f8565b80601f0160208091040260200160405190810160405280929190818152602001828054611c78906135f8565b8015611cc55780601f10611c9a57610100808354040283529160200191611cc5565b820191906000526020600020905b815481529060010190602001808311611ca857829003601f168201915b50505050508152505061250b565b611e3d600a6000600860ff16815260200190815260200160002060008c610100015160ff1660ff168152602001908152602001600020604051806040016040529081600082018054611d24906135f8565b80601f0160208091040260200160405190810160405280929190818152602001828054611d50906135f8565b8015611d9d5780601f10611d7257610100808354040283529160200191611d9d565b820191906000526020600020905b815481529060010190602001808311611d8057829003601f168201915b50505050508152602001600182018054611db6906135f8565b80601f0160208091040260200160405190810160405280929190818152602001828054611de2906135f8565b8015611e2f5780601f10611e0457610100808354040283529160200191611e2f565b820191906000526020600020905b815481529060010190602001808311611e1257829003601f168201915b50505050508152505061250b565b604051602001611e5599989796959493929190612f95565b604051602081830303815290604052905080604051602001611e779190613168565b60405160208183030381529060405292505050919050565b60008060009054906101000a900473ffffffffffffffffffffffffffffffffffffffff16905090565b600a60205281600052604060002060205280600052604060002060009150915050806000018054611ee8906135f8565b80601f0160208091040260200160405190810160405280929190818152602001828054611f14906135f8565b8015611f615780601f10611f3657610100808354040283529160200191611f61565b820191906000526020600020905b815481529060010190602001808311611f4457829003601f168201915b505050505090806001018054611f76906135f8565b80601f0160208091040260200160405190810160405280929190818152602001828054611fa2906135f8565b8015611fef5780601f10611fc457610100808354040283529160200191611fef565b820191906000526020600020905b815481529060010190602001808311611fd257829003601f168201915b5050505050905082565b600b60009054906101000a900473ffffffffffffffffffffffffffffffffffffffff1681565b6060600061202c83612538565b61203d612038856110d8565b612699565b612046856102be565b604051602001612058939291906131d8565b604051602081830303815290604052905061207281612699565b6040516020016120829190613240565b604051602081830303815290604052915050919050565b6120a1612413565b73ffffffffffffffffffffffffffffffffffffffff166120bf611e8f565b73ffffffffffffffffffffffffffffffffffffffff1614612115576040517f08c379a000000000000000000000000000000000000000000000000000000000815260040161210c90613331565b60405180910390fd5b81819050848490501461215d576040517f08c379a000000000000000000000000000000000000000000000000000000000815260040161215490613311565b60405180910390fd5b60005b8282905081101561231357604051806040016040528084848481811061218957612188613762565b5b905060200281019061219b91906133cf565b80600001906121aa919061336c565b8080601f016020809104026020016040519081016040528093929190818152602001838380828437600081840152601f19601f82011690508083019250505050505050815260200184848481811061220557612204613762565b5b905060200281019061221791906133cf565b8060200190612226919061336c565b8080601f016020809104026020016040519081016040528093929190818152602001838380828437600081840152601f19601f82011690508083019250505050505050815250600a60008860ff1660ff168152602001908152602001600020600087878581811061229a57612299613762565b5b90506020020160208101906122af9190612b1d565b60ff1660ff16815260200190815260200160002060008201518160000190805190602001906122df929190612812565b5060208201518160010190805190602001906122fc929190612812565b50905050808061230b9061365b565b915050612160565b505050505050565b612323612413565b73ffffffffffffffffffffffffffffffffffffffff16612341611e8f565b73ffffffffffffffffffffffffffffffffffffffff1614612397576040517f08c379a000000000000000000000000000000000000000000000000000000000815260040161238e90613331565b60405180910390fd5b600073ffffffffffffffffffffffffffffffffffffffff168173ffffffffffffffffffffffffffffffffffffffff161415612407576040517f08c379a00000000000000000000000000000000000000000000000000000000081526004016123fe906132f1565b60405180910390fd5b61241081612447565b50565b600033905090565b60608282604051602001612430929190613123565b604051602081830303815290604052905092915050565b60008060009054906101000a900473ffffffffffffffffffffffffffffffffffffffff169050816000806101000a81548173ffffffffffffffffffffffffffffffffffffffff021916908373ffffffffffffffffffffffffffffffffffffffff1602179055508173ffffffffffffffffffffffffffffffffffffffff168173ffffffffffffffffffffffffffffffffffffffff167f8be0079c531659141344cd1fd0a4f28419497f9722a3daafe3b4186f6b6457e060405160405180910390a35050565b6060816020015160405160200161252291906130f6565b6040516020818303038152906040529050919050565b60606000821415612580576040518060400160405280600181526020017f30000000000000000000000000000000000000000000000000000000000000008152509050612694565b600082905060005b600082146125b257808061259b9061365b565b915050600a826125ab9190613499565b9150612588565b60008167ffffffffffffffff8111156125ce576125cd613791565b5b6040519080825280601f01601f1916602001820160405280156126005781602001600182028036833780820191505090505b5090505b6000851461268d576001826126199190613524565b9150600a8561262891906136a4565b60306126349190613443565b60f81b81838151811061264a57612649613762565b5b60200101907effffffffffffffffffffffffffffffffffffffffffffffffffffffffffffff1916908160001a905350600a856126869190613499565b9450612604565b8093505050505b919050565b60606000825114156126bc5760405180602001604052806000815250905061280d565b6000604051806060016040528060408152602001613d6960409139905060006003600285516126eb9190613443565b6126f59190613499565b600461270191906134ca565b905060006020826127129190613443565b67ffffffffffffffff81111561272b5761272a613791565b5b6040519080825280601f01601f19166020018201604052801561275d5781602001600182028036833780820191505090505b509050818152600183018586518101602084015b818310156127cc576003830192508251603f8160121c168501518253600182019150603f81600c1c168501518253600182019150603f8160061c168501518253600182019150603f8116850151825360018201915050612771565b6003895106600181146127e657600281146127f657612801565b613d3d60f01b6002830352612801565b603d60f81b60018303525b50505050508093505050505b919050565b82805461281e906135f8565b90600052602060002090601f0160209004810192826128405760008555612887565b82601f1061285957805160ff1916838001178555612887565b82800160010185558215612887579182015b8281111561288657825182559160200191906001019061286b565b5b5090506128949190612898565b5090565b5b808211156128b1576000816000905550600101612899565b5090565b6000813590506128c481613d23565b92915050565b60008083601f8401126128e0576128df6137c5565b5b8235905067ffffffffffffffff8111156128fd576128fc6137c0565b5b602083019150836020820283011115612919576129186137d9565b5b9250929050565b60008083601f840112612936576129356137c5565b5b8235905067ffffffffffffffff811115612953576129526137c0565b5b60208301915083602082028301111561296f5761296e6137d9565b5b9250929050565b6000610120828403121561298d5761298c6137cf565b5b6129986101206133f7565b905060006129a884828501612a80565b60008301525060206129bc84828501612a80565b60208301525060406129d084828501612a80565b60408301525060606129e484828501612a80565b60608301525060806129f884828501612a80565b60808301525060a0612a0c84828501612a80565b60a08301525060c0612a2084828501612a80565b60c08301525060e0612a3484828501612a80565b60e083015250610100612a4984828501612a80565b6101008301525092915050565b600081359050612a6581613d3a565b92915050565b600081359050612a7a81613d51565b92915050565b600081519050612a8f81613d51565b92915050565b600060208284031215612aab57612aaa6137e8565b5b6000612ab9848285016128b5565b91505092915050565b60006101208284031215612ad957612ad86137e8565b5b6000612ae784828501612976565b91505092915050565b600060208284031215612b0657612b056137e8565b5b6000612b1484828501612a56565b91505092915050565b600060208284031215612b3357612b326137e8565b5b6000612b4184828501612a6b565b91505092915050565b600080600080600060608688031215612b6657612b656137e8565b5b6000612b7488828901612a6b565b955050602086013567ffffffffffffffff811115612b9557612b946137e3565b5b612ba188828901612920565b9450945050604086013567ffffffffffffffff811115612bc457612bc36137e3565b5b612bd0888289016128ca565b92509250509295509295909350565b60008060408385031215612bf657612bf56137e8565b5b6000612c0485828601612a6b565b9250506020612c1585828601612a6b565b9150509250929050565b612c2881613558565b82525050565b612c37816135a1565b82525050565b6000612c488261341c565b612c528185613427565b9350612c628185602086016135c5565b612c6b816137ed565b840191505092915050565b6000612c818261341c565b612c8b8185613438565b9350612c9b8185602086016135c5565b80840191505092915050565b6000612cb4600583613438565b9150612cbf826137fe565b600582019050919050565b6000612cd7608783613438565b9150612ce282613827565b608782019050919050565b6000612cfa602683613427565b9150612d05826138e8565b604082019050919050565b6000612d1d600183613438565b9150612d2882613937565b600182019050919050565b6000612d40600583613438565b9150612d4b82613960565b600582019050919050565b6000612d63600f83613438565b9150612d6e82613989565b600f82019050919050565b6000612d86609983613438565b9150612d91826139b2565b609982019050919050565b6000612da9600283613438565b9150612db482613a73565b600282019050919050565b6000612dcc601d83613438565b9150612dd782613a9c565b601d82019050919050565b6000612def601183613427565b9150612dfa82613ac5565b602082019050919050565b6000612e12600283613438565b9150612e1d82613aee565b600282019050919050565b6000612e35601083613438565b9150612e4082613b17565b601082019050919050565b6000612e58600183613438565b9150612e6382613b40565b600182019050919050565b6000612e7b602083613427565b9150612e8682613b69565b602082019050919050565b6000612e9e600183613438565b9150612ea982613b92565b600182019050919050565b6000612ec1600a83613438565b9150612ecc82613bbb565b600a82019050919050565b6000612ee4600b83613438565b9150612eef82613be4565b600b82019050919050565b6000612f07600383613438565b9150612f1282613c0d565b600382019050919050565b6000612f2a601d83613438565b9150612f3582613c36565b601d82019050919050565b6000612f4d607583613438565b9150612f5882613c5f565b607582019050919050565b6000612f70600683613438565b9150612f7b82613cfa565b600682019050919050565b612f8f8161358a565b82525050565b6000612fa1828c612c76565b9150612fad828b612c76565b9150612fb9828a612c76565b9150612fc58289612c76565b9150612fd18288612c76565b9150612fdd8287612c76565b9150612fe98286612c76565b9150612ff58285612c76565b91506130018284612c76565b91508190509a9950505050505050505050565b6000613020828c612c76565b915061302b82612d10565b9150613037828b612c76565b915061304282612d10565b915061304e828a612c76565b915061305982612d10565b91506130658289612c76565b915061307082612d10565b915061307c8288612c76565b915061308782612d10565b91506130938287612c76565b915061309e82612d10565b91506130aa8286612c76565b91506130b582612d10565b91506130c18285612c76565b91506130cc82612d10565b91506130d88284612c76565b91506130e382612d10565b91508190509a9950505050505050505050565b600061310182612cca565b915061310d8284612c76565b915061311882612efa565b915081905092915050565b600061312e82612d56565b915061313a8285612c76565b915061314582612ed7565b91506131518284612c76565b915061315c82612e05565b91508190509392505050565b600061317382612d79565b915061317f8284612c76565b915061318a82612f63565b915081905092915050565b60006131a082612e91565b91506131ac8284612c76565b91506131b782612dbf565b91506131c282612ca7565b91506131cd82612d9c565b915081905092915050565b60006131e382612eb4565b91506131ee82612d33565b91506131fa8286612c76565b915061320582612f40565b91506132118285612c76565b915061321c82612e28565b91506132288284612c76565b915061323382612e4b565b9150819050949350505050565b600061324b82612f1d565b91506132578284612c76565b915081905092915050565b60006020820190506132776000830184612c1f565b92915050565b60006020820190506132926000830184612c2e565b92915050565b600060208201905081810360008301526132b28184612c3d565b905092915050565b600060408201905081810360008301526132d48185612c3d565b905081810360208301526132e88184612c3d565b90509392505050565b6000602082019050818103600083015261330a81612ced565b9050919050565b6000602082019050818103600083015261332a81612de2565b9050919050565b6000602082019050818103600083015261334a81612e6e565b9050919050565b60006020820190506133666000830184612f86565b92915050565b60008083356001602003843603038112613389576133886137d4565b5b80840192508235915067ffffffffffffffff8211156133ab576133aa6137ca565b5b6020830192506001820236038313156133c7576133c66137de565b5b509250929050565b6000823560016040038336030381126133eb576133ea6137d4565b5b80830191505092915050565b6000613401613412565b905061340d828261362a565b919050565b6000604051905090565b600081519050919050565b600082825260208201905092915050565b600081905092915050565b600061344e8261358a565b91506134598361358a565b9250827fffffffffffffffffffffffffffffffffffffffffffffffffffffffffffffffff0382111561348e5761348d6136d5565b5b828201905092915050565b60006134a48261358a565b91506134af8361358a565b9250826134bf576134be613704565b5b828204905092915050565b60006134d58261358a565b91506134e08361358a565b9250817fffffffffffffffffffffffffffffffffffffffffffffffffffffffffffffffff0483118215151615613519576135186136d5565b5b828202905092915050565b600061352f8261358a565b915061353a8361358a565b92508282101561354d5761354c6136d5565b5b828203905092915050565b60006135638261356a565b9050919050565b600073ffffffffffffffffffffffffffffffffffffffff82169050919050565b6000819050919050565b600060ff82169050919050565b60006135ac826135b3565b9050919050565b60006135be8261356a565b9050919050565b60005b838110156135e35780820151818401526020810190506135c8565b838111156135f2576000848401525b50505050565b6000600282049050600182168061361057607f821691505b6020821081141561362457613623613733565b5b50919050565b613633826137ed565b810181811067ffffffffffffffff8211171561365257613651613791565b5b80604052505050565b60006136668261358a565b91507fffffffffffffffffffffffffffffffffffffffffffffffffffffffffffffffff821415613699576136986136d5565b5b600182019050919050565b60006136af8261358a565b91506136ba8361358a565b9250826136ca576136c9613704565b5b828206905092915050565b7f4e487b7100000000000000000000000000000000000000000000000000000000600052601160045260246000fd5b7f4e487b7100000000000000000000000000000000000000000000000000000000600052601260045260246000fd5b7f4e487b7100000000000000000000000000000000000000000000000000000000600052602260045260246000fd5b7f4e487b7100000000000000000000000000000000000000000000000000000000600052603260045260246000fd5b7f4e487b7100000000000000000000000000000000000000000000000000000000600052604160045260246000fd5b600080fd5b600080fd5b600080fd5b600080fd5b600080fd5b600080fd5b600080fd5b600080fd5b600080fd5b6000601f19601f8301169050919050565b7f2243617222000000000000000000000000000000000000000000000000000000600082015250565b7f3c696d61676520783d22342220793d2234222077696474683d2233322220686560008201527f696768743d2233322220696d6167652d72656e646572696e673d22706978656c60208201527f6174656422207072657365727665417370656374526174696f3d22784d69645960408201527f4d69642220786c696e6b3a687265663d22646174613a696d6167652f706e673b60608201527f6261736536342c00000000000000000000000000000000000000000000000000608082015250565b7f4f776e61626c653a206e6577206f776e657220697320746865207a65726f206160008201527f6464726573730000000000000000000000000000000000000000000000000000602082015250565b7f2c00000000000000000000000000000000000000000000000000000000000000600082015250565b7f4361722023000000000000000000000000000000000000000000000000000000600082015250565b7f7b2274726169745f74797065223a220000000000000000000000000000000000600082015250565b7f3c7376672069643d22636172222077696474683d22313030252220686569676860008201527f743d2231303025222076657273696f6e3d22312e31222076696577426f783d2260208201527f3020302034302034302220786d6c6e733d22687474703a2f2f7777772e77332e60408201527f6f72672f323030302f7376672220786d6c6e733a786c696e6b3d22687474703a60608201527f2f2f7777772e77332e6f72672f313939392f786c696e6b223e00000000000000608082015250565b7f7d5d000000000000000000000000000000000000000000000000000000000000600082015250565b7f7b2274726169745f74797065223a2254797065222c2276616c7565223a000000600082015250565b7f4d69736d61746368656420696e70757473000000000000000000000000000000600082015250565b7f227d000000000000000000000000000000000000000000000000000000000000600082015250565b7f222c202261747472696275746573223a00000000000000000000000000000000600082015250565b7f7d00000000000000000000000000000000000000000000000000000000000000600082015250565b7f4f776e61626c653a2063616c6c6572206973206e6f7420746865206f776e6572600082015250565b7f5b00000000000000000000000000000000000000000000000000000000000000600082015250565b7f7b226e616d65223a202200000000000000000000000000000000000000000000600082015250565b7f222c2276616c7565223a22000000000000000000000000000000000000000000600082015250565b7f222f3e0000000000000000000000000000000000000000000000000000000000600082015250565b7f646174613a6170706c69636174696f6e2f6a736f6e3b6261736536342c000000600082015250565b7f222c20226465736372697074696f6e223a202252616e646f6d20636172204e4660008201527f54732063726561746564206f6e2074686520626c6f636b636861696e2e204e6f60208201527f204150492c206e6f20495046532e222c2022696d616765223a2022646174613a60408201527f696d6167652f7376672b786d6c3b6261736536342c0000000000000000000000606082015250565b7f3c2f7376673e0000000000000000000000000000000000000000000000000000600082015250565b613d2c81613558565b8114613d3757600080fd5b50565b613d438161358a565b8114613d4e57600080fd5b50565b613d5a81613594565b8114613d6557600080fd5b5056fe4142434445464748494a4b4c4d4e4f505152535455565758595a6162636465666768696a6b6c6d6e6f707172737475767778797a303132333435363738392b2fa2646970667358221220def151ab2d84e270710704cc19388e45329e18de677df35309eca9356dc88de764736f6c63430008060033",
  "linkReferences": {},
  "deployedLinkReferences": {}
}