{
  "_format": "hh-sol-artifact-1",
  "contractName": "CarsAuctionHouse",
  "sourceName": "contracts/CarsAuctionHouse.sol",
  "abi": [
    {
      "inputs": [
        {
          "internalType": "contract ICarsToken",
          "name": "_cars",
          "type": "address"
        },
        {
          "internalType": "address",
          "name": "_weth",
          "type": "address"
        },
        {
          "internalType": "uint256",
          "name": "_timeBuffer",
          "type": "uint256"
        },
        {
          "internalType": "uint8",
          "name": "_minBidIncrementPercentage",
          "type": "uint8"
        },
        {
          "internalType": "uint256",
          "name": "_duration",
          "type": "uint256"
        }
      ],
      "stateMutability": "nonpayable",
      "type": "constructor"
    },
    {
      "anonymous": false,
      "inputs": [
        {
          "indexed": true,
          "internalType": "uint256",
          "name": "nounId",
          "type": "uint256"
        },
        {
          "indexed": false,
          "internalType": "address",
          "name": "sender",
          "type": "address"
        },
        {
          "indexed": false,
          "internalType": "uint256",
          "name": "value",
          "type": "uint256"
        },
        {
          "indexed": false,
          "internalType": "bool",
          "name": "extended",
          "type": "bool"
        }
      ],
      "name": "AuctionBid",
      "type": "event"
    },
    {
      "anonymous": false,
      "inputs": [
        {
          "indexed": true,
          "internalType": "uint256",
          "name": "nounId",
          "type": "uint256"
        },
        {
          "indexed": false,
          "internalType": "uint256",
          "name": "startTime",
          "type": "uint256"
        },
        {
          "indexed": false,
          "internalType": "uint256",
          "name": "endTime",
          "type": "uint256"
        }
      ],
      "name": "AuctionCreated",
      "type": "event"
    },
    {
      "anonymous": false,
      "inputs": [
        {
          "indexed": true,
          "internalType": "uint256",
          "name": "nounId",
          "type": "uint256"
        },
        {
          "indexed": false,
          "internalType": "uint256",
          "name": "endTime",
          "type": "uint256"
        }
      ],
      "name": "AuctionExtended",
      "type": "event"
    },
    {
      "anonymous": false,
      "inputs": [
        {
          "indexed": false,
          "internalType": "uint256",
          "name": "minBidIncrementPercentage",
          "type": "uint256"
        }
      ],
      "name": "AuctionMinBidIncrementPercentageUpdated",
      "type": "event"
    },
    {
      "anonymous": false,
      "inputs": [
        {
          "indexed": true,
          "internalType": "uint256",
          "name": "nounId",
          "type": "uint256"
        },
        {
          "indexed": false,
          "internalType": "address",
          "name": "winner",
          "type": "address"
        },
        {
          "indexed": false,
          "internalType": "uint256",
          "name": "amount",
          "type": "uint256"
        }
      ],
      "name": "AuctionSettled",
      "type": "event"
    },
    {
      "anonymous": false,
      "inputs": [
        {
          "indexed": false,
          "internalType": "uint256",
          "name": "timeBuffer",
          "type": "uint256"
        }
      ],
      "name": "AuctionTimeBufferUpdated",
      "type": "event"
    },
    {
      "anonymous": false,
      "inputs": [
        {
          "indexed": true,
          "internalType": "address",
          "name": "previousOwner",
          "type": "address"
        },
        {
          "indexed": true,
          "internalType": "address",
          "name": "newOwner",
          "type": "address"
        }
      ],
      "name": "OwnershipTransferred",
      "type": "event"
    },
    {
      "anonymous": false,
      "inputs": [
        {
          "indexed": false,
          "internalType": "address",
          "name": "account",
          "type": "address"
        }
      ],
      "name": "Paused",
      "type": "event"
    },
    {
      "anonymous": false,
      "inputs": [
        {
          "indexed": false,
          "internalType": "address",
          "name": "account",
          "type": "address"
        }
      ],
      "name": "Unpaused",
      "type": "event"
    },
    {
      "inputs": [],
      "name": "auction",
      "outputs": [
        {
          "internalType": "uint256",
          "name": "carId",
          "type": "uint256"
        },
        {
          "internalType": "uint256",
          "name": "amount",
          "type": "uint256"
        },
        {
          "internalType": "uint256",
          "name": "startTime",
          "type": "uint256"
        },
        {
          "internalType": "uint256",
          "name": "endTime",
          "type": "uint256"
        },
        {
          "internalType": "address payable",
          "name": "bidder",
          "type": "address"
        },
        {
          "internalType": "bool",
          "name": "settled",
          "type": "bool"
        }
      ],
      "stateMutability": "view",
      "type": "function"
    },
    {
      "inputs": [],
      "name": "cars",
      "outputs": [
        {
          "internalType": "contract ICarsToken",
          "name": "",
          "type": "address"
        }
      ],
      "stateMutability": "view",
      "type": "function"
    },
    {
      "inputs": [
        {
          "internalType": "uint256",
          "name": "carId",
          "type": "uint256"
        }
      ],
      "name": "createBid",
      "outputs": [],
      "stateMutability": "payable",
      "type": "function"
    },
    {
      "inputs": [],
      "name": "duration",
      "outputs": [
        {
          "internalType": "uint256",
          "name": "",
          "type": "uint256"
        }
      ],
      "stateMutability": "view",
      "type": "function"
    },
    {
      "inputs": [
        {
          "internalType": "uint256",
          "name": "_carId",
          "type": "uint256"
        }
      ],
      "name": "getBidsForId",
      "outputs": [
        {
          "components": [
            {
              "internalType": "uint256",
              "name": "bidAmount",
              "type": "uint256"
            },
            {
              "internalType": "uint256",
              "name": "timestamp",
              "type": "uint256"
            },
            {
              "internalType": "address",
              "name": "bidderAddress",
              "type": "address"
            }
          ],
          "internalType": "struct CarsAuctionHouse.Bid[]",
          "name": "",
          "type": "tuple[]"
        }
      ],
      "stateMutability": "view",
      "type": "function"
    },
    {
      "inputs": [],
      "name": "minBidIncrementPercentage",
      "outputs": [
        {
          "internalType": "uint8",
          "name": "",
          "type": "uint8"
        }
      ],
      "stateMutability": "view",
      "type": "function"
    },
    {
      "inputs": [],
      "name": "owner",
      "outputs": [
        {
          "internalType": "address",
          "name": "",
          "type": "address"
        }
      ],
      "stateMutability": "view",
      "type": "function"
    },
    {
      "inputs": [],
      "name": "paused",
      "outputs": [
        {
          "internalType": "bool",
          "name": "",
          "type": "bool"
        }
      ],
      "stateMutability": "view",
      "type": "function"
    },
    {
      "inputs": [],
      "name": "renounceOwnership",
      "outputs": [],
      "stateMutability": "nonpayable",
      "type": "function"
    },
    {
      "inputs": [
        {
          "internalType": "uint8",
          "name": "_minBidIncrementPercentage",
          "type": "uint8"
        }
      ],
      "name": "setMinBidIncrementPercentage",
      "outputs": [],
      "stateMutability": "nonpayable",
      "type": "function"
    },
    {
      "inputs": [
        {
          "internalType": "uint256",
          "name": "_timeBuffer",
          "type": "uint256"
        }
      ],
      "name": "setTimeBuffer",
      "outputs": [],
      "stateMutability": "nonpayable",
      "type": "function"
    },
    {
      "inputs": [],
      "name": "settleAuction",
      "outputs": [],
      "stateMutability": "nonpayable",
      "type": "function"
    },
    {
      "inputs": [],
      "name": "settleCurrentAndCreateNewAuction",
      "outputs": [],
      "stateMutability": "nonpayable",
      "type": "function"
    },
    {
      "inputs": [],
      "name": "timeBuffer",
      "outputs": [
        {
          "internalType": "uint256",
          "name": "",
          "type": "uint256"
        }
      ],
      "stateMutability": "view",
      "type": "function"
    },
    {
      "inputs": [
        {
          "internalType": "address",
          "name": "newOwner",
          "type": "address"
        }
      ],
      "name": "transferOwnership",
      "outputs": [],
      "stateMutability": "nonpayable",
      "type": "function"
    },
    {
      "inputs": [],
      "name": "weth",
      "outputs": [
        {
          "internalType": "address",
          "name": "",
          "type": "address"
        }
      ],
      "stateMutability": "view",
      "type": "function"
    }
  ],
  "bytecode": "0x60806040523480156200001157600080fd5b506040516200293d3803806200293d833981810160405281019062000037919062000258565b60008060006101000a81548160ff02191690831515021790555060018081905550620000786200006c6200012e60201b60201c565b6200013660201b60201c565b84600360006101000a81548173ffffffffffffffffffffffffffffffffffffffff021916908373ffffffffffffffffffffffffffffffffffffffff16021790555083600460006101000a81548173ffffffffffffffffffffffffffffffffffffffff021916908373ffffffffffffffffffffffffffffffffffffffff1602179055508260058190555081600660006101000a81548160ff021916908360ff160217905550806007819055505050505050620003ac565b600033905090565b6000600260009054906101000a900473ffffffffffffffffffffffffffffffffffffffff16905081600260006101000a81548173ffffffffffffffffffffffffffffffffffffffff021916908373ffffffffffffffffffffffffffffffffffffffff1602179055508173ffffffffffffffffffffffffffffffffffffffff168173ffffffffffffffffffffffffffffffffffffffff167f8be0079c531659141344cd1fd0a4f28419497f9722a3daafe3b4186f6b6457e060405160405180910390a35050565b6000815190506200020d8162000344565b92915050565b60008151905062000224816200035e565b92915050565b6000815190506200023b8162000378565b92915050565b600081519050620002528162000392565b92915050565b600080600080600060a086880312156200027757620002766200033f565b5b6000620002878882890162000213565b95505060206200029a88828901620001fc565b9450506040620002ad888289016200022a565b9350506060620002c08882890162000241565b9250506080620002d3888289016200022a565b9150509295509295909350565b6000620002ed8262000308565b9050919050565b60006200030182620002e0565b9050919050565b600073ffffffffffffffffffffffffffffffffffffffff82169050919050565b6000819050919050565b600060ff82169050919050565b600080fd5b6200034f81620002e0565b81146200035b57600080fd5b50565b6200036981620002f4565b81146200037557600080fd5b50565b620003838162000328565b81146200038f57600080fd5b50565b6200039d8162000332565b8114620003a957600080fd5b50565b61258180620003bc6000396000f3fe6080604052600436106100f35760003560e01c80637d9f6db51161008a578063b296024d11610059578063b296024d146102d8578063ec91f2a414610303578063f25efffc1461032e578063f2fde38b14610345576100f3565b80637d9f6db51461023b5780638da5cb5b1461026b5780639a7ffc5714610296578063a4d0a17e146102c1576100f3565b80635c975abb116100c65780635c975abb146101b4578063659dd2b4146101df5780637120334b146101fb578063715018a614610224576100f3565b80630fb5a6b4146100f857806336ebdb38146101235780633fc8cef31461014c5780634ff579a814610177575b600080fd5b34801561010457600080fd5b5061010d61036e565b60405161011a9190611de7565b60405180910390f35b34801561012f57600080fd5b5061014a60048036038101906101459190611810565b610374565b005b34801561015857600080fd5b50610161610445565b60405161016e9190611b54565b60405180910390f35b34801561018357600080fd5b5061019e600480360381019061019991906117b6565b61046b565b6040516101ab9190611c2f565b60405180910390f35b3480156101c057600080fd5b506101c9610547565b6040516101d69190611c51565b60405180910390f35b6101f960048036038101906101f491906117b6565b61055d565b005b34801561020757600080fd5b50610222600480360381019061021d91906117b6565b610996565b005b34801561023057600080fd5b50610239610a53565b005b34801561024757600080fd5b50610250610adb565b60405161026296959493929190611e2b565b60405180910390f35b34801561027757600080fd5b50610280610b32565b60405161028d9190611b54565b60405180910390f35b3480156102a257600080fd5b506102ab610b5c565b6040516102b89190611c6c565b60405180910390f35b3480156102cd57600080fd5b506102d6610b82565b005b3480156102e457600080fd5b506102ed610c28565b6040516102fa9190611ea7565b60405180910390f35b34801561030f57600080fd5b50610318610c3b565b6040516103259190611de7565b60405180910390f35b34801561033a57600080fd5b50610343610c41565b005b34801561035157600080fd5b5061036c6004803603810190610367919061175c565b610cf0565b005b60075481565b61037c610de8565b73ffffffffffffffffffffffffffffffffffffffff1661039a610b32565b73ffffffffffffffffffffffffffffffffffffffff16146103f0576040517f08c379a00000000000000000000000000000000000000000000000000000000081526004016103e790611d27565b60405180910390fd5b80600660006101000a81548160ff021916908360ff1602179055507fec5ccd96cc77b6219e9d44143df916af68fc169339ea7de5008ff15eae13450d8160405161043a9190611e8c565b60405180910390a150565b600460009054906101000a900473ffffffffffffffffffffffffffffffffffffffff1681565b6060600d6000838152602001908152602001600020805480602002602001604051908101604052809291908181526020016000905b8282101561053c578382906000526020600020906003020160405180606001604052908160008201548152602001600182015481526020016002820160009054906101000a900473ffffffffffffffffffffffffffffffffffffffff1673ffffffffffffffffffffffffffffffffffffffff1673ffffffffffffffffffffffffffffffffffffffff1681525050815260200190600101906104a0565b505050509050919050565b60008060009054906101000a900460ff16905090565b600260015414156105a3576040517f08c379a000000000000000000000000000000000000000000000000000000000815260040161059a90611da7565b60405180910390fd5b6002600181905550600060086040518060c0016040529081600082015481526020016001820154815260200160028201548152602001600382015481526020016004820160009054906101000a900473ffffffffffffffffffffffffffffffffffffffff1673ffffffffffffffffffffffffffffffffffffffff1673ffffffffffffffffffffffffffffffffffffffff1681526020016004820160149054906101000a900460ff16151515158152505090508181600001511461069b576040517f08c379a000000000000000000000000000000000000000000000000000000000815260040161069290611d67565b60405180910390fd5b806060015142106106e1576040517f08c379a00000000000000000000000000000000000000000000000000000000081526004016106d890611dc7565b60405180910390fd5b6064600660009054906101000a900460ff1660ff1682602001516107059190611fb3565b61070f9190611f82565b816020015161071e9190611f2c565b341015610760576040517f08c379a000000000000000000000000000000000000000000000000000000000815260040161075790611d07565b60405180910390fd5b600081608001519050600073ffffffffffffffffffffffffffffffffffffffff168173ffffffffffffffffffffffffffffffffffffffff16146107ac576107ab818360200151610df0565b5b3460086001018190555033600860040160006101000a81548173ffffffffffffffffffffffffffffffffffffffff021916908373ffffffffffffffffffffffffffffffffffffffff160217905550600d600084815260200190815260200160002060405180606001604052803481526020014281526020013373ffffffffffffffffffffffffffffffffffffffff168152509080600181540180825580915050600190039060005260206000209060030201600090919091909150600082015181600001556020820151816001015560408201518160020160006101000a81548173ffffffffffffffffffffffffffffffffffffffff021916908373ffffffffffffffffffffffffffffffffffffffff160217905550505060006005544284606001516108d9919061200d565b109050801561090257600554426108f09190611f2c565b83606001818152506008600301819055505b82600001517f1159164c56f277e6fc99c11731bd380e0347deb969b75523398734c252706ea333348460405161093a93929190611bf8565b60405180910390a280156109895782600001517f6e912a3a9105bdd2af817ba5adc14e6c127c1035b5b648faa29ca0d58ab8ff4e84606001516040516109809190611de7565b60405180910390a25b5050506001808190555050565b61099e610de8565b73ffffffffffffffffffffffffffffffffffffffff166109bc610b32565b73ffffffffffffffffffffffffffffffffffffffff1614610a12576040517f08c379a0000000000000000000000000000000000000000000000000000000008152600401610a0990611d27565b60405180910390fd5b806005819055507f1b55d9f7002bda4490f467e326f22a4a847629c0f2d1ed421607d318d25b410d81604051610a489190611de7565b60405180910390a150565b610a5b610de8565b73ffffffffffffffffffffffffffffffffffffffff16610a79610b32565b73ffffffffffffffffffffffffffffffffffffffff1614610acf576040517f08c379a0000000000000000000000000000000000000000000000000000000008152600401610ac690611d27565b60405180910390fd5b610ad96000610f36565b565b60088060000154908060010154908060020154908060030154908060040160009054906101000a900473ffffffffffffffffffffffffffffffffffffffff16908060040160149054906101000a900460ff16905086565b6000600260009054906101000a900473ffffffffffffffffffffffffffffffffffffffff16905090565b600360009054906101000a900473ffffffffffffffffffffffffffffffffffffffff1681565b610b8a610547565b610bc9576040517f08c379a0000000000000000000000000000000000000000000000000000000008152600401610bc090611c87565b60405180910390fd5b60026001541415610c0f576040517f08c379a0000000000000000000000000000000000000000000000000000000008152600401610c0690611da7565b60405180910390fd5b6002600181905550610c1f610ffc565b60018081905550565b600660009054906101000a900460ff1681565b60055481565b60026001541415610c87576040517f08c379a0000000000000000000000000000000000000000000000000000000008152600401610c7e90611da7565b60405180910390fd5b6002600181905550610c97610547565b15610cd7576040517f08c379a0000000000000000000000000000000000000000000000000000000008152600401610cce90611ce7565b60405180910390fd5b610cdf610ffc565b610ce761136d565b60018081905550565b610cf8610de8565b73ffffffffffffffffffffffffffffffffffffffff16610d16610b32565b73ffffffffffffffffffffffffffffffffffffffff1614610d6c576040517f08c379a0000000000000000000000000000000000000000000000000000000008152600401610d6390611d27565b60405180910390fd5b600073ffffffffffffffffffffffffffffffffffffffff168173ffffffffffffffffffffffffffffffffffffffff161415610ddc576040517f08c379a0000000000000000000000000000000000000000000000000000000008152600401610dd390611ca7565b60405180910390fd5b610de581610f36565b50565b600033905090565b610dfa8282611586565b610f3257600460009054906101000a900473ffffffffffffffffffffffffffffffffffffffff1673ffffffffffffffffffffffffffffffffffffffff1663d0e30db0826040518263ffffffff1660e01b81526004016000604051808303818588803b158015610e6857600080fd5b505af1158015610e7c573d6000803e3d6000fd5b5050505050600460009054906101000a900473ffffffffffffffffffffffffffffffffffffffff1673ffffffffffffffffffffffffffffffffffffffff1663a9059cbb83836040518363ffffffff1660e01b8152600401610ede929190611bcf565b602060405180830381600087803b158015610ef857600080fd5b505af1158015610f0c573d6000803e3d6000fd5b505050506040513d601f19601f82011682018060405250810190610f309190611789565b505b5050565b6000600260009054906101000a900473ffffffffffffffffffffffffffffffffffffffff16905081600260006101000a81548173ffffffffffffffffffffffffffffffffffffffff021916908373ffffffffffffffffffffffffffffffffffffffff1602179055508173ffffffffffffffffffffffffffffffffffffffff168173ffffffffffffffffffffffffffffffffffffffff167f8be0079c531659141344cd1fd0a4f28419497f9722a3daafe3b4186f6b6457e060405160405180910390a35050565b600060086040518060c0016040529081600082015481526020016001820154815260200160028201548152602001600382015481526020016004820160009054906101000a900473ffffffffffffffffffffffffffffffffffffffff1673ffffffffffffffffffffffffffffffffffffffff1673ffffffffffffffffffffffffffffffffffffffff1681526020016004820160149054906101000a900460ff16151515158152505090506000816040015114156110ee576040517f08c379a00000000000000000000000000000000000000000000000000000000081526004016110e590611cc7565b60405180910390fd5b8060a0015115611133576040517f08c379a000000000000000000000000000000000000000000000000000000000815260040161112a90611d47565b60405180910390fd5b806060015142101561117a576040517f08c379a000000000000000000000000000000000000000000000000000000000815260040161117190611d87565b60405180910390fd5b6001600860040160146101000a81548160ff021916908315150217905550600073ffffffffffffffffffffffffffffffffffffffff16816080015173ffffffffffffffffffffffffffffffffffffffff16141561126757600360009054906101000a900473ffffffffffffffffffffffffffffffffffffffff1673ffffffffffffffffffffffffffffffffffffffff166342966c6882600001516040518263ffffffff1660e01b81526004016112309190611de7565b600060405180830381600087803b15801561124a57600080fd5b505af115801561125e573d6000803e3d6000fd5b50505050611301565b600360009054906101000a900473ffffffffffffffffffffffffffffffffffffffff1673ffffffffffffffffffffffffffffffffffffffff166323b872dd30836080015184600001516040518463ffffffff1660e01b81526004016112ce93929190611b98565b600060405180830381600087803b1580156112e857600080fd5b505af11580156112fc573d6000803e3d6000fd5b505050505b60008160200151111561132457611323611319610b32565b8260200151610df0565b5b80600001517fc9f72b276a388619c6d185d146697036241880c36654b1a3ffdad07c24038d9982608001518360200151604051611362929190611b6f565b60405180910390a250565b600360009054906101000a900473ffffffffffffffffffffffffffffffffffffffff1673ffffffffffffffffffffffffffffffffffffffff16631249c58b6040518163ffffffff1660e01b8152600401602060405180830381600087803b1580156113d757600080fd5b505af192505050801561140857506040513d601f19601f8201168201806040525081019061140591906117e3565b60015b61145357611414612205565b806308c379a014156114425750611429612459565b806114345750611444565b61143c611651565b5061144e565b505b3d6000803e3d6000fd5b611584565b60004290506000600754826114689190611f2c565b90506040518060c0016040528084815260200160008152602001838152602001828152602001600073ffffffffffffffffffffffffffffffffffffffff1681526020016000151581525060086000820151816000015560208201518160010155604082015181600201556060820151816003015560808201518160040160006101000a81548173ffffffffffffffffffffffffffffffffffffffff021916908373ffffffffffffffffffffffffffffffffffffffff16021790555060a08201518160040160146101000a81548160ff021916908315150217905550905050827fd6eddd1118d71820909c1197aa966dbc15ed6f508554252169cc3d5ccac756ca8383604051611578929190611e02565b60405180910390a25050505b565b6000808373ffffffffffffffffffffffffffffffffffffffff168361753090600067ffffffffffffffff8111156115c0576115bf6121d6565b5b6040519080825280601f01601f1916602001820160405280156115f25781602001600182028036833780820191505090505b506040516116009190611b3d565b600060405180830381858888f193505050503d806000811461163e576040519150601f19603f3d011682016040523d82523d6000602084013e611643565b606091505b505090508091505092915050565b611659610547565b15611699576040517f08c379a000000000000000000000000000000000000000000000000000000000815260040161169090611ce7565b60405180910390fd5b60016000806101000a81548160ff0219169083151502179055507f62e78cea01bee320cd4e420270b5ea74000d11b0c9f74754ebdbfc544b05a2586116dc610de8565b6040516116e99190611b54565b60405180910390a1565b600081359050611702816124ef565b92915050565b60008151905061171781612506565b92915050565b60008135905061172c8161251d565b92915050565b6000815190506117418161251d565b92915050565b60008135905061175681612534565b92915050565b60006020828403121561177257611771612227565b5b6000611780848285016116f3565b91505092915050565b60006020828403121561179f5761179e612227565b5b60006117ad84828501611708565b91505092915050565b6000602082840312156117cc576117cb612227565b5b60006117da8482850161171d565b91505092915050565b6000602082840312156117f9576117f8612227565b5b600061180784828501611732565b91505092915050565b60006020828403121561182657611825612227565b5b600061183484828501611747565b91505092915050565b60006118498383611abf565b60608301905092915050565b61185e816120a8565b82525050565b61186d81612053565b82525050565b61187c81612041565b82525050565b61188b81612041565b82525050565b600061189c82611edc565b6118a68185611eff565b93506118b183611ecc565b8060005b838110156118e25781516118c9888261183d565b97506118d483611ef2565b9250506001810190506118b5565b5085935050505092915050565b6118f881612065565b82525050565b600061190982611ee7565b6119138185611f10565b9350611923818560208601612114565b80840191505092915050565b611938816120ba565b82525050565b600061194b601483611f1b565b91506119568261224a565b602082019050919050565b600061196e602683611f1b565b915061197982612273565b604082019050919050565b6000611991601483611f1b565b915061199c826122c2565b602082019050919050565b60006119b4601083611f1b565b91506119bf826122eb565b602082019050919050565b60006119d7604083611f1b565b91506119e282612314565b604082019050919050565b60006119fa602083611f1b565b9150611a0582612363565b602082019050919050565b6000611a1d602083611f1b565b9150611a288261238c565b602082019050919050565b6000611a40601683611f1b565b9150611a4b826123b5565b602082019050919050565b6000611a63601883611f1b565b9150611a6e826123de565b602082019050919050565b6000611a86601f83611f1b565b9150611a9182612407565b602082019050919050565b6000611aa9600f83611f1b565b9150611ab482612430565b602082019050919050565b606082016000820151611ad56000850182611b01565b506020820151611ae86020850182611b01565b506040820151611afb6040850182611873565b50505050565b611b0a81612091565b82525050565b611b1981612091565b82525050565b611b2881612102565b82525050565b611b378161209b565b82525050565b6000611b4982846118fe565b915081905092915050565b6000602082019050611b696000830184611882565b92915050565b6000604082019050611b846000830185611855565b611b916020830184611b10565b9392505050565b6000606082019050611bad6000830186611882565b611bba6020830185611855565b611bc76040830184611b10565b949350505050565b6000604082019050611be46000830185611882565b611bf16020830184611b10565b9392505050565b6000606082019050611c0d6000830186611882565b611c1a6020830185611b10565b611c2760408301846118ef565b949350505050565b60006020820190508181036000830152611c498184611891565b905092915050565b6000602082019050611c6660008301846118ef565b92915050565b6000602082019050611c81600083018461192f565b92915050565b60006020820190508181036000830152611ca08161193e565b9050919050565b60006020820190508181036000830152611cc081611961565b9050919050565b60006020820190508181036000830152611ce081611984565b9050919050565b60006020820190508181036000830152611d00816119a7565b9050919050565b60006020820190508181036000830152611d20816119ca565b9050919050565b60006020820190508181036000830152611d40816119ed565b9050919050565b60006020820190508181036000830152611d6081611a10565b9050919050565b60006020820190508181036000830152611d8081611a33565b9050919050565b60006020820190508181036000830152611da081611a56565b9050919050565b60006020820190508181036000830152611dc081611a79565b9050919050565b60006020820190508181036000830152611de081611a9c565b9050919050565b6000602082019050611dfc6000830184611b10565b92915050565b6000604082019050611e176000830185611b10565b611e246020830184611b10565b9392505050565b600060c082019050611e406000830189611b10565b611e4d6020830188611b10565b611e5a6040830187611b10565b611e676060830186611b10565b611e746080830185611864565b611e8160a08301846118ef565b979650505050505050565b6000602082019050611ea16000830184611b1f565b92915050565b6000602082019050611ebc6000830184611b2e565b92915050565b6000604051905090565b6000819050602082019050919050565b600081519050919050565b600081519050919050565b6000602082019050919050565b600082825260208201905092915050565b600081905092915050565b600082825260208201905092915050565b6000611f3782612091565b9150611f4283612091565b9250827fffffffffffffffffffffffffffffffffffffffffffffffffffffffffffffffff03821115611f7757611f76612178565b5b828201905092915050565b6000611f8d82612091565b9150611f9883612091565b925082611fa857611fa76121a7565b5b828204905092915050565b6000611fbe82612091565b9150611fc983612091565b9250817fffffffffffffffffffffffffffffffffffffffffffffffffffffffffffffffff048311821515161561200257612001612178565b5b828202905092915050565b600061201882612091565b915061202383612091565b92508282101561203657612035612178565b5b828203905092915050565b600061204c82612071565b9050919050565b600061205e82612071565b9050919050565b60008115159050919050565b600073ffffffffffffffffffffffffffffffffffffffff82169050919050565b6000819050919050565b600060ff82169050919050565b60006120b3826120de565b9050919050565b60006120c5826120cc565b9050919050565b60006120d782612071565b9050919050565b60006120e9826120f0565b9050919050565b60006120fb82612071565b9050919050565b600061210d8261209b565b9050919050565b60005b83811015612132578082015181840152602081019050612117565b83811115612141576000848401525b50505050565b6121508261222c565b810181811067ffffffffffffffff8211171561216f5761216e6121d6565b5b80604052505050565b7f4e487b7100000000000000000000000000000000000000000000000000000000600052601160045260246000fd5b7f4e487b7100000000000000000000000000000000000000000000000000000000600052601260045260246000fd5b7f4e487b7100000000000000000000000000000000000000000000000000000000600052604160045260246000fd5b600060033d11156122245760046000803e61222160005161223d565b90505b90565b600080fd5b6000601f19601f8301169050919050565b60008160e01c9050919050565b7f5061757361626c653a206e6f7420706175736564000000000000000000000000600082015250565b7f4f776e61626c653a206e6577206f776e657220697320746865207a65726f206160008201527f6464726573730000000000000000000000000000000000000000000000000000602082015250565b7f41756374696f6e206861736e277420626567756e000000000000000000000000600082015250565b7f5061757361626c653a2070617573656400000000000000000000000000000000600082015250565b7f4d7573742073656e64206d6f7265207468616e206c617374206269642062792060008201527f6d696e426964496e6372656d656e7450657263656e7461676520616d6f756e74602082015250565b7f4f776e61626c653a2063616c6c6572206973206e6f7420746865206f776e6572600082015250565b7f41756374696f6e2068617320616c7265616479206265656e20736574746c6564600082015250565b7f436172206e6f7420757020666f722061756374696f6e00000000000000000000600082015250565b7f41756374696f6e206861736e277420636f6d706c657465640000000000000000600082015250565b7f5265656e7472616e637947756172643a207265656e7472616e742063616c6c00600082015250565b7f41756374696f6e20657870697265640000000000000000000000000000000000600082015250565b600060443d1015612469576124ec565b612471611ec2565b60043d036004823e80513d602482011167ffffffffffffffff821117156124995750506124ec565b808201805167ffffffffffffffff8111156124b757505050506124ec565b80602083010160043d0385018111156124d45750505050506124ec565b6124e382602001850186612147565b82955050505050505b90565b6124f881612041565b811461250357600080fd5b50565b61250f81612065565b811461251a57600080fd5b50565b61252681612091565b811461253157600080fd5b50565b61253d8161209b565b811461254857600080fd5b5056fea2646970667358221220bef29dcad463687ed3c82e4a8af20c9da4b612ab1adc8d5ae1d4964618fc3f0f64736f6c63430008060033",
  "linkReferences": {},
  "deployedLinkReferences": {}
}